{
  "_format": "hh-sol-artifact-1",
  "contractName": "Ledger",
  "sourceName": "contracts/Ledger.sol",
  "abi": [
    {
      "inputs": [],
      "stateMutability": "nonpayable",
      "type": "constructor"
    },
    {
      "inputs": [],
      "name": "Ledger__NotEnoughFundsPaid",
      "type": "error"
    },
    {
      "inputs": [],
      "name": "Ledger__NotPermitted",
      "type": "error"
    },
    {
      "anonymous": false,
      "inputs": [
        {
          "indexed": true,
          "internalType": "string",
          "name": "carPlate",
          "type": "string"
        },
        {
          "indexed": true,
          "internalType": "string",
          "name": "location",
          "type": "string"
        }
      ],
      "name": "NewTicketIssued",
      "type": "event"
    },
    {
      "anonymous": false,
      "inputs": [
        {
          "indexed": true,
          "internalType": "uint256",
          "name": "ticketNumber",
          "type": "uint256"
        },
        {
          "indexed": true,
          "internalType": "string",
          "name": "carPlate",
          "type": "string"
        }
      ],
      "name": "TicketPaid",
      "type": "event"
    },
    {
      "inputs": [
        {
          "internalType": "string",
          "name": "enteredLocation",
          "type": "string"
        },
        {
          "internalType": "string",
          "name": "carPlate",
          "type": "string"
        },
        {
          "internalType": "uint256",
          "name": "tixPrice",
          "type": "uint256"
        }
      ],
      "name": "createTicket",
      "outputs": [],
      "stateMutability": "nonpayable",
      "type": "function"
    },
    {
      "inputs": [],
      "name": "getAdminAddress",
      "outputs": [
        {
          "internalType": "address",
          "name": "",
          "type": "address"
        }
      ],
      "stateMutability": "view",
      "type": "function"
    },
    {
      "inputs": [],
      "name": "getAllTickets",
      "outputs": [
        {
          "components": [
            {
              "internalType": "uint256",
              "name": "ticketNumber",
              "type": "uint256"
            },
            {
              "internalType": "string",
              "name": "location",
              "type": "string"
            },
            {
              "internalType": "string",
              "name": "carNumberPlate",
              "type": "string"
            },
            {
              "internalType": "uint256",
              "name": "price",
              "type": "uint256"
            },
            {
              "internalType": "uint256",
              "name": "issuedAt",
              "type": "uint256"
            },
            {
              "internalType": "bool",
              "name": "isPaid",
              "type": "bool"
            }
          ],
          "internalType": "struct Ledger.Ticket[]",
          "name": "",
          "type": "tuple[]"
        }
      ],
      "stateMutability": "view",
      "type": "function"
    },
    {
      "inputs": [
        {
          "internalType": "uint256",
          "name": "ticketNo",
          "type": "uint256"
        }
      ],
      "name": "getTicketInfo",
      "outputs": [
        {
          "components": [
            {
              "internalType": "uint256",
              "name": "ticketNumber",
              "type": "uint256"
            },
            {
              "internalType": "string",
              "name": "location",
              "type": "string"
            },
            {
              "internalType": "string",
              "name": "carNumberPlate",
              "type": "string"
            },
            {
              "internalType": "uint256",
              "name": "price",
              "type": "uint256"
            },
            {
              "internalType": "uint256",
              "name": "issuedAt",
              "type": "uint256"
            },
            {
              "internalType": "bool",
              "name": "isPaid",
              "type": "bool"
            }
          ],
          "internalType": "struct Ledger.Ticket",
          "name": "",
          "type": "tuple"
        }
      ],
      "stateMutability": "view",
      "type": "function"
    },
    {
      "inputs": [
        {
          "internalType": "string",
          "name": "carPlate",
          "type": "string"
        }
      ],
      "name": "getVehiclePaidTickets",
      "outputs": [
        {
          "components": [
            {
              "internalType": "uint256",
              "name": "ticketNumber",
              "type": "uint256"
            },
            {
              "internalType": "string",
              "name": "location",
              "type": "string"
            },
            {
              "internalType": "string",
              "name": "carNumberPlate",
              "type": "string"
            },
            {
              "internalType": "uint256",
              "name": "price",
              "type": "uint256"
            },
            {
              "internalType": "uint256",
              "name": "issuedAt",
              "type": "uint256"
            },
            {
              "internalType": "bool",
              "name": "isPaid",
              "type": "bool"
            }
          ],
          "internalType": "struct Ledger.Ticket[]",
          "name": "",
          "type": "tuple[]"
        }
      ],
      "stateMutability": "view",
      "type": "function"
    },
    {
      "inputs": [
        {
          "internalType": "string",
          "name": "carPlate",
          "type": "string"
        }
      ],
      "name": "getVehicleTickets",
      "outputs": [
        {
          "components": [
            {
              "internalType": "uint256",
              "name": "ticketNumber",
              "type": "uint256"
            },
            {
              "internalType": "string",
              "name": "location",
              "type": "string"
            },
            {
              "internalType": "string",
              "name": "carNumberPlate",
              "type": "string"
            },
            {
              "internalType": "uint256",
              "name": "price",
              "type": "uint256"
            },
            {
              "internalType": "uint256",
              "name": "issuedAt",
              "type": "uint256"
            },
            {
              "internalType": "bool",
              "name": "isPaid",
              "type": "bool"
            }
          ],
          "internalType": "struct Ledger.Ticket[]",
          "name": "",
          "type": "tuple[]"
        }
      ],
      "stateMutability": "view",
      "type": "function"
    },
    {
      "inputs": [
        {
          "internalType": "string",
          "name": "carPlate",
          "type": "string"
        }
      ],
      "name": "getVehicleUnPaidTickets",
      "outputs": [
        {
          "components": [
            {
              "internalType": "uint256",
              "name": "ticketNumber",
              "type": "uint256"
            },
            {
              "internalType": "string",
              "name": "location",
              "type": "string"
            },
            {
              "internalType": "string",
              "name": "carNumberPlate",
              "type": "string"
            },
            {
              "internalType": "uint256",
              "name": "price",
              "type": "uint256"
            },
            {
              "internalType": "uint256",
              "name": "issuedAt",
              "type": "uint256"
            },
            {
              "internalType": "bool",
              "name": "isPaid",
              "type": "bool"
            }
          ],
          "internalType": "struct Ledger.Ticket[]",
          "name": "",
          "type": "tuple[]"
        }
      ],
      "stateMutability": "view",
      "type": "function"
    },
    {
      "inputs": [
        {
          "internalType": "string",
          "name": "carPlate",
          "type": "string"
        },
        {
          "internalType": "uint256",
          "name": "ticketNo",
          "type": "uint256"
        }
      ],
      "name": "payTicket",
      "outputs": [],
      "stateMutability": "payable",
      "type": "function"
    }
  ],
  "bytecode": "0x60a060405234801561001057600080fd5b503373ffffffffffffffffffffffffffffffffffffffff1660808173ffffffffffffffffffffffffffffffffffffffff1681525050600080819055506000600181905550608051612024610076600039600081816103cd01526111e701526120246000f3fe60806040526004361061007b5760003560e01c80637d71c9e71161004e5780637d71c9e71461012d578063b2e6b9121461016a578063cdf8254b14610195578063ff99a063146101d25761007b565b806303e96fe3146100805780631af4d702146100ab5780634fd77ff3146100d45780635153e8dd146100f0575b600080fd5b34801561008c57600080fd5b5061009561020f565b6040516100a29190611829565b60405180910390f35b3480156100b757600080fd5b506100d260048036038101906100cd91906119c0565b6103cb565b005b6100ee60048036038101906100e99190611a4b565b610759565b005b3480156100fc57600080fd5b5061011760048036038101906101129190611aa7565b610e2f565b6040516101249190611829565b60405180910390f35b34801561013957600080fd5b50610154600480360381019061014f9190611aa7565b611009565b6040516101619190611829565b60405180910390f35b34801561017657600080fd5b5061017f6111e3565b60405161018c9190611b31565b60405180910390f35b3480156101a157600080fd5b506101bc60048036038101906101b79190611aa7565b61120b565b6040516101c99190611829565b60405180910390f35b3480156101de57600080fd5b506101f960048036038101906101f49190611b4c565b6113e5565b6040516102069190611c09565b60405180910390f35b60606002805480602002602001604051908101604052809291908181526020016000905b828210156103c257838290600052602060002090600602016040518060c00160405290816000820154815260200160018201805461027090611c5a565b80601f016020809104026020016040519081016040528092919081815260200182805461029c90611c5a565b80156102e95780601f106102be576101008083540402835291602001916102e9565b820191906000526020600020905b8154815290600101906020018083116102cc57829003601f168201915b5050505050815260200160028201805461030290611c5a565b80601f016020809104026020016040519081016040528092919081815260200182805461032e90611c5a565b801561037b5780601f106103505761010080835404028352916020019161037b565b820191906000526020600020905b81548152906001019060200180831161035e57829003601f168201915b5050505050815260200160038201548152602001600482015481526020016005820160009054906101000a900460ff16151515158152505081526020019060010190610233565b50505050905090565b7f000000000000000000000000000000000000000000000000000000000000000073ffffffffffffffffffffffffffffffffffffffff163373ffffffffffffffffffffffffffffffffffffffff1614610450576040517fdaf2766300000000000000000000000000000000000000000000000000000000815260040160405180910390fd5b60026040518060c0016040528060005481526020018581526020018481526020018381526020014281526020016000151581525090806001815401808255809150506001900390600052602060002090600602016000909190919091506000820151816000015560208201518160010190816104cc9190611e37565b5060408201518160020190816104e29190611e37565b50606082015181600301556080820151816004015560a08201518160050160006101000a81548160ff02191690831515021790555050506003826040516105299190611f45565b90815260200160405180910390206040518060c0016040528060005481526020018581526020018481526020018381526020014281526020016000151581525090806001815401808255809150506001900390600052602060002090600602016000909190919091506000820151816000015560208201518160010190816105b19190611e37565b5060408201518160020190816105c79190611e37565b50606082015181600301556080820151816004015560a08201518160050160006101000a81548160ff021916908315150217905550505060048260405161060e9190611f45565b90815260200160405180910390206040518060c0016040528060005481526020018581526020018481526020018381526020014281526020016000151581525090806001815401808255809150506001900390600052602060002090600602016000909190919091506000820151816000015560208201518160010190816106969190611e37565b5060408201518160020190816106ac9190611e37565b50606082015181600301556080820151816004015560a08201518160050160006101000a81548160ff021916908315150217905550505060016000808282546106f59190611f8b565b925050819055508260405161070a9190611f45565b6040518091039020826040516107209190611f45565b60405180910390207f2eb5a5afbe330c720b569c62a4c06cc1d9562eeadf2d5ffa3af175408e69b91460405160405180910390a3505050565b600060038360405161076b9190611f45565b9081526020016040518091039020828154811061078b5761078a611fbf565b5b90600052602060002090600602016040518060c0016040529081600082015481526020016001820180546107be90611c5a565b80601f01602080910402602001604051908101604052809291908181526020018280546107ea90611c5a565b80156108375780601f1061080c57610100808354040283529160200191610837565b820191906000526020600020905b81548152906001019060200180831161081a57829003601f168201915b5050505050815260200160028201805461085090611c5a565b80601f016020809104026020016040519081016040528092919081815260200182805461087c90611c5a565b80156108c95780601f1061089e576101008083540402835291602001916108c9565b820191906000526020600020905b8154815290600101906020018083116108ac57829003601f168201915b5050505050815260200160038201548152602001600482015481526020016005820160009054906101000a900460ff161515151581525050905060008160600151905080341015610946576040517fcdcdc2a800000000000000000000000000000000000000000000000000000000815260040160405180910390fd5b34600160008282546109589190611f8b565b9250508190555060018260a001901515908115158152505060006002848154811061098657610985611fbf565b5b90600052602060002090600602016040518060c0016040529081600082015481526020016001820180546109b990611c5a565b80601f01602080910402602001604051908101604052809291908181526020018280546109e590611c5a565b8015610a325780601f10610a0757610100808354040283529160200191610a32565b820191906000526020600020905b815481529060010190602001808311610a1557829003601f168201915b50505050508152602001600282018054610a4b90611c5a565b80601f0160208091040260200160405190810160405280929190818152602001828054610a7790611c5a565b8015610ac45780601f10610a9957610100808354040283529160200191610ac4565b820191906000526020600020905b815481529060010190602001808311610aa757829003601f168201915b5050505050815260200160038201548152602001600482015481526020016005820160009054906101000a900460ff161515151581525050905060028481548110610b1257610b11611fbf565b5b9060005260206000209060060201600080820160009055600182016000610b39919061157e565b600282016000610b49919061157e565b600382016000905560048201600090556005820160006101000a81549060ff0219169055505060026040518060c001604052808360000151815260200183602001518152602001836040015181526020018360600151815260200183608001518152602001600115158152509080600181540180825580915050600190039060005260206000209060060201600090919091909150600082015181600001556020820151816001019081610bfd9190611e37565b506040820151816002019081610c139190611e37565b50606082015181600301556080820151816004015560a08201518160050160006101000a81548160ff02191690831515021790555050506001600386604051610c5c9190611f45565b90815260200160405180910390208581548110610c7c57610c7b611fbf565b5b906000526020600020906006020160050160006101000a81548160ff021916908315150217905550600485604051610cb49190611f45565b90815260200160405180910390208481548110610cd457610cd3611fbf565b5b9060005260206000209060060201600080820160009055600182016000610cfb919061157e565b600282016000610d0b919061157e565b600382016000905560048201600090556005820160006101000a81549060ff02191690555050600585604051610d419190611f45565b9081526020016040518091039020839080600181540180825580915050600190039060005260206000209060060201600090919091909150600082015181600001556020820151816001019081610d989190611e37565b506040820151816002019081610dae9190611e37565b50606082015181600301556080820151816004015560a08201518160050160006101000a81548160ff021916908315150217905550505084604051610df39190611f45565b6040518091039020847fe28e2edd34dc43f8e5cfe399e8462a1057a879b384d9195699ff890334ae08ec60405160405180910390a35050505050565b6060600482604051610e419190611f45565b9081526020016040518091039020805480602002602001604051908101604052809291908181526020016000905b82821015610ffe57838290600052602060002090600602016040518060c001604052908160008201548152602001600182018054610eac90611c5a565b80601f0160208091040260200160405190810160405280929190818152602001828054610ed890611c5a565b8015610f255780601f10610efa57610100808354040283529160200191610f25565b820191906000526020600020905b815481529060010190602001808311610f0857829003601f168201915b50505050508152602001600282018054610f3e90611c5a565b80601f0160208091040260200160405190810160405280929190818152602001828054610f6a90611c5a565b8015610fb75780601f10610f8c57610100808354040283529160200191610fb7565b820191906000526020600020905b815481529060010190602001808311610f9a57829003601f168201915b5050505050815260200160038201548152602001600482015481526020016005820160009054906101000a900460ff16151515158152505081526020019060010190610e6f565b505050509050919050565b606060038260405161101b9190611f45565b9081526020016040518091039020805480602002602001604051908101604052809291908181526020016000905b828210156111d857838290600052602060002090600602016040518060c00160405290816000820154815260200160018201805461108690611c5a565b80601f01602080910402602001604051908101604052809291908181526020018280546110b290611c5a565b80156110ff5780601f106110d4576101008083540402835291602001916110ff565b820191906000526020600020905b8154815290600101906020018083116110e257829003601f168201915b5050505050815260200160028201805461111890611c5a565b80601f016020809104026020016040519081016040528092919081815260200182805461114490611c5a565b80156111915780601f1061116657610100808354040283529160200191611191565b820191906000526020600020905b81548152906001019060200180831161117457829003601f168201915b5050505050815260200160038201548152602001600482015481526020016005820160009054906101000a900460ff16151515158152505081526020019060010190611049565b505050509050919050565b60007f0000000000000000000000000000000000000000000000000000000000000000905090565b606060058260405161121d9190611f45565b9081526020016040518091039020805480602002602001604051908101604052809291908181526020016000905b828210156113da57838290600052602060002090600602016040518060c00160405290816000820154815260200160018201805461128890611c5a565b80601f01602080910402602001604051908101604052809291908181526020018280546112b490611c5a565b80156113015780601f106112d657610100808354040283529160200191611301565b820191906000526020600020905b8154815290600101906020018083116112e457829003601f168201915b5050505050815260200160028201805461131a90611c5a565b80601f016020809104026020016040519081016040528092919081815260200182805461134690611c5a565b80156113935780601f1061136857610100808354040283529160200191611393565b820191906000526020600020905b81548152906001019060200180831161137657829003601f168201915b5050505050815260200160038201548152602001600482015481526020016005820160009054906101000a900460ff1615151515815250508152602001906001019061124b565b505050509050919050565b6113ed6115be565b6002828154811061140157611400611fbf565b5b90600052602060002090600602016040518060c00160405290816000820154815260200160018201805461143490611c5a565b80601f016020809104026020016040519081016040528092919081815260200182805461146090611c5a565b80156114ad5780601f10611482576101008083540402835291602001916114ad565b820191906000526020600020905b81548152906001019060200180831161149057829003601f168201915b505050505081526020016002820180546114c690611c5a565b80601f01602080910402602001604051908101604052809291908181526020018280546114f290611c5a565b801561153f5780601f106115145761010080835404028352916020019161153f565b820191906000526020600020905b81548152906001019060200180831161152257829003601f168201915b5050505050815260200160038201548152602001600482015481526020016005820160009054906101000a900460ff1615151515815250509050919050565b50805461158a90611c5a565b6000825580601f1061159c57506115bb565b601f0160209004906000526020600020908101906115ba91906115f6565b5b50565b6040518060c0016040528060008152602001606081526020016060815260200160008152602001600081526020016000151581525090565b5b8082111561160f5760008160009055506001016115f7565b5090565b600081519050919050565b600082825260208201905092915050565b6000819050602082019050919050565b6000819050919050565b6116528161163f565b82525050565b600081519050919050565b600082825260208201905092915050565b60005b83811015611692578082015181840152602081019050611677565b60008484015250505050565b6000601f19601f8301169050919050565b60006116ba82611658565b6116c48185611663565b93506116d4818560208601611674565b6116dd8161169e565b840191505092915050565b60008115159050919050565b6116fd816116e8565b82525050565b600060c08301600083015161171b6000860182611649565b506020830151848203602086015261173382826116af565b9150506040830151848203604086015261174d82826116af565b91505060608301516117626060860182611649565b5060808301516117756080860182611649565b5060a083015161178860a08601826116f4565b508091505092915050565b600061179f8383611703565b905092915050565b6000602082019050919050565b60006117bf82611613565b6117c9818561161e565b9350836020820285016117db8561162f565b8060005b8581101561181757848403895281516117f88582611793565b9450611803836117a7565b925060208a019950506001810190506117df565b50829750879550505050505092915050565b6000602082019050818103600083015261184381846117b4565b905092915050565b6000604051905090565b600080fd5b600080fd5b600080fd5b600080fd5b7f4e487b7100000000000000000000000000000000000000000000000000000000600052604160045260246000fd5b6118a18261169e565b810181811067ffffffffffffffff821117156118c0576118bf611869565b5b80604052505050565b60006118d361184b565b90506118df8282611898565b919050565b600067ffffffffffffffff8211156118ff576118fe611869565b5b6119088261169e565b9050602081019050919050565b82818337600083830152505050565b6000611937611932846118e4565b6118c9565b90508281526020810184848401111561195357611952611864565b5b61195e848285611915565b509392505050565b600082601f83011261197b5761197a61185f565b5b813561198b848260208601611924565b91505092915050565b61199d8161163f565b81146119a857600080fd5b50565b6000813590506119ba81611994565b92915050565b6000806000606084860312156119d9576119d8611855565b5b600084013567ffffffffffffffff8111156119f7576119f661185a565b5b611a0386828701611966565b935050602084013567ffffffffffffffff811115611a2457611a2361185a565b5b611a3086828701611966565b9250506040611a41868287016119ab565b9150509250925092565b60008060408385031215611a6257611a61611855565b5b600083013567ffffffffffffffff811115611a8057611a7f61185a565b5b611a8c85828601611966565b9250506020611a9d858286016119ab565b9150509250929050565b600060208284031215611abd57611abc611855565b5b600082013567ffffffffffffffff811115611adb57611ada61185a565b5b611ae784828501611966565b91505092915050565b600073ffffffffffffffffffffffffffffffffffffffff82169050919050565b6000611b1b82611af0565b9050919050565b611b2b81611b10565b82525050565b6000602082019050611b466000830184611b22565b92915050565b600060208284031215611b6257611b61611855565b5b6000611b70848285016119ab565b91505092915050565b600060c083016000830151611b916000860182611649565b5060208301518482036020860152611ba982826116af565b91505060408301518482036040860152611bc382826116af565b9150506060830151611bd86060860182611649565b506080830151611beb6080860182611649565b5060a0830151611bfe60a08601826116f4565b508091505092915050565b60006020820190508181036000830152611c238184611b79565b905092915050565b7f4e487b7100000000000000000000000000000000000000000000000000000000600052602260045260246000fd5b60006002820490506001821680611c7257607f821691505b602082108103611c8557611c84611c2b565b5b50919050565b60008190508160005260206000209050919050565b60006020601f8301049050919050565b600082821b905092915050565b600060088302611ced7fffffffffffffffffffffffffffffffffffffffffffffffffffffffffffffffff82611cb0565b611cf78683611cb0565b95508019841693508086168417925050509392505050565b6000819050919050565b6000611d34611d2f611d2a8461163f565b611d0f565b61163f565b9050919050565b6000819050919050565b611d4e83611d19565b611d62611d5a82611d3b565b848454611cbd565b825550505050565b600090565b611d77611d6a565b611d82818484611d45565b505050565b5b81811015611da657611d9b600082611d6f565b600181019050611d88565b5050565b601f821115611deb57611dbc81611c8b565b611dc584611ca0565b81016020851015611dd4578190505b611de8611de085611ca0565b830182611d87565b50505b505050565b600082821c905092915050565b6000611e0e60001984600802611df0565b1980831691505092915050565b6000611e278383611dfd565b9150826002028217905092915050565b611e4082611658565b67ffffffffffffffff811115611e5957611e58611869565b5b611e638254611c5a565b611e6e828285611daa565b600060209050601f831160018114611ea15760008415611e8f578287015190505b611e998582611e1b565b865550611f01565b601f198416611eaf86611c8b565b60005b82811015611ed757848901518255600182019150602085019450602081019050611eb2565b86831015611ef45784890151611ef0601f891682611dfd565b8355505b6001600288020188555050505b505050505050565b600081905092915050565b6000611f1f82611658565b611f298185611f09565b9350611f39818560208601611674565b80840191505092915050565b6000611f518284611f14565b915081905092915050565b7f4e487b7100000000000000000000000000000000000000000000000000000000600052601160045260246000fd5b6000611f968261163f565b9150611fa18361163f565b9250828201905080821115611fb957611fb8611f5c565b5b92915050565b7f4e487b7100000000000000000000000000000000000000000000000000000000600052603260045260246000fdfea2646970667358221220fd75fc5301eb1281098ee9e108fc607e00a0cff8c33e4bced6cc74e33d6f8ffb64736f6c63430008110033",
  "linkReferences": {},
  "deployedLinkReferences": {}
}