{"contracts/Ledger.sol":{"Ledger":{"abi":[{"inputs":[],"stateMutability":"nonpayable","type":"constructor"},{"inputs":[],"name":"Ledger__NotEnoughFundsPaid","type":"error"},{"inputs":[],"name":"Ledger__NotPermitted","type":"error"},{"anonymous":false,"inputs":[{"indexed":true,"internalType":"string","name":"carPlate","type":"string"},{"indexed":true,"internalType":"string","name":"location","type":"string"}],"name":"NewTicketIssued","type":"event"},{"anonymous":false,"inputs":[{"indexed":true,"internalType":"uint256","name":"ticketNumber","type":"uint256"},{"indexed":true,"internalType":"string","name":"carPlate","type":"string"}],"name":"TicketPaid","type":"event"},{"inputs":[{"internalType":"string","name":"enteredLocation","type":"string"},{"internalType":"string","name":"carPlate","type":"string"},{"internalType":"uint256","name":"tixPrice","type":"uint256"}],"name":"createTicket","outputs":[],"stateMutability":"nonpayable","type":"function"},{"inputs":[],"name":"getAdminAddress","outputs":[{"internalType":"address","name":"","type":"address"}],"stateMutability":"view","type":"function"},{"inputs":[],"name":"getAllTickets","outputs":[{"components":[{"internalType":"uint256","name":"ticketNumber","type":"uint256"},{"internalType":"string","name":"location","type":"string"},{"internalType":"string","name":"carNumberPlate","type":"string"},{"internalType":"uint256","name":"price","type":"uint256"},{"internalType":"uint256","name":"issuedAt","type":"uint256"},{"internalType":"bool","name":"isPaid","type":"bool"}],"internalType":"struct Ledger.Ticket[]","name":"","type":"tuple[]"}],"stateMutability":"view","type":"function"},{"inputs":[{"internalType":"uint256","name":"ticketNo","type":"uint256"}],"name":"getTicketInfo","outputs":[{"components":[{"internalType":"uint256","name":"ticketNumber","type":"uint256"},{"internalType":"string","name":"location","type":"string"},{"internalType":"string","name":"carNumberPlate","type":"string"},{"internalType":"uint256","name":"price","type":"uint256"},{"internalType":"uint256","name":"issuedAt","type":"uint256"},{"internalType":"bool","name":"isPaid","type":"bool"}],"internalType":"struct Ledger.Ticket","name":"","type":"tuple"}],"stateMutability":"view","type":"function"},{"inputs":[{"internalType":"string","name":"carPlate","type":"string"}],"name":"getVehiclePaidTickets","outputs":[{"components":[{"internalType":"uint256","name":"ticketNumber","type":"uint256"},{"internalType":"string","name":"location","type":"string"},{"internalType":"string","name":"carNumberPlate","type":"string"},{"internalType":"uint256","name":"price","type":"uint256"},{"internalType":"uint256","name":"issuedAt","type":"uint256"},{"internalType":"bool","name":"isPaid","type":"bool"}],"internalType":"struct Ledger.Ticket[]","name":"","type":"tuple[]"}],"stateMutability":"view","type":"function"},{"inputs":[{"internalType":"string","name":"carPlate","type":"string"}],"name":"getVehicleTickets","outputs":[{"components":[{"internalType":"uint256","name":"ticketNumber","type":"uint256"},{"internalType":"string","name":"location","type":"string"},{"internalType":"string","name":"carNumberPlate","type":"string"},{"internalType":"uint256","name":"price","type":"uint256"},{"internalType":"uint256","name":"issuedAt","type":"uint256"},{"internalType":"bool","name":"isPaid","type":"bool"}],"internalType":"struct Ledger.Ticket[]","name":"","type":"tuple[]"}],"stateMutability":"view","type":"function"},{"inputs":[{"internalType":"string","name":"carPlate","type":"string"}],"name":"getVehicleUnPaidTickets","outputs":[{"components":[{"internalType":"uint256","name":"ticketNumber","type":"uint256"},{"internalType":"string","name":"location","type":"string"},{"internalType":"string","name":"carNumberPlate","type":"string"},{"internalType":"uint256","name":"price","type":"uint256"},{"internalType":"uint256","name":"issuedAt","type":"uint256"},{"internalType":"bool","name":"isPaid","type":"bool"}],"internalType":"struct Ledger.Ticket[]","name":"","type":"tuple[]"}],"stateMutability":"view","type":"function"},{"inputs":[{"internalType":"string","name":"carPlate","type":"string"},{"internalType":"uint256","name":"ticketNo","type":"uint256"}],"name":"payTicket","outputs":[],"stateMutability":"payable","type":"function"}],"devdoc":{"kind":"dev","methods":{},"version":1},"evm":{"bytecode":{"linkReferences":{},"object":"60a060405234801561001057600080fd5b503373ffffffffffffffffffffffffffffffffffffffff1660808173ffffffffffffffffffffffffffffffffffffffff1681525050600080819055506000600181905550608051612024610076600039600081816103cd01526111e701526120246000f3fe60806040526004361061007b5760003560e01c80637d71c9e71161004e5780637d71c9e71461012d578063b2e6b9121461016a578063cdf8254b14610195578063ff99a063146101d25761007b565b806303e96fe3146100805780631af4d702146100ab5780634fd77ff3146100d45780635153e8dd146100f0575b600080fd5b34801561008c57600080fd5b5061009561020f565b6040516100a29190611829565b60405180910390f35b3480156100b757600080fd5b506100d260048036038101906100cd91906119c0565b6103cb565b005b6100ee60048036038101906100e99190611a4b565b610759565b005b3480156100fc57600080fd5b5061011760048036038101906101129190611aa7565b610e2f565b6040516101249190611829565b60405180910390f35b34801561013957600080fd5b50610154600480360381019061014f9190611aa7565b611009565b6040516101619190611829565b60405180910390f35b34801561017657600080fd5b5061017f6111e3565b60405161018c9190611b31565b60405180910390f35b3480156101a157600080fd5b506101bc60048036038101906101b79190611aa7565b61120b565b6040516101c99190611829565b60405180910390f35b3480156101de57600080fd5b506101f960048036038101906101f49190611b4c565b6113e5565b6040516102069190611c09565b60405180910390f35b60606002805480602002602001604051908101604052809291908181526020016000905b828210156103c257838290600052602060002090600602016040518060c00160405290816000820154815260200160018201805461027090611c5a565b80601f016020809104026020016040519081016040528092919081815260200182805461029c90611c5a565b80156102e95780601f106102be576101008083540402835291602001916102e9565b820191906000526020600020905b8154815290600101906020018083116102cc57829003601f168201915b5050505050815260200160028201805461030290611c5a565b80601f016020809104026020016040519081016040528092919081815260200182805461032e90611c5a565b801561037b5780601f106103505761010080835404028352916020019161037b565b820191906000526020600020905b81548152906001019060200180831161035e57829003601f168201915b5050505050815260200160038201548152602001600482015481526020016005820160009054906101000a900460ff16151515158152505081526020019060010190610233565b50505050905090565b7f000000000000000000000000000000000000000000000000000000000000000073ffffffffffffffffffffffffffffffffffffffff163373ffffffffffffffffffffffffffffffffffffffff1614610450576040517fdaf2766300000000000000000000000000000000000000000000000000000000815260040160405180910390fd5b60026040518060c0016040528060005481526020018581526020018481526020018381526020014281526020016000151581525090806001815401808255809150506001900390600052602060002090600602016000909190919091506000820151816000015560208201518160010190816104cc9190611e37565b5060408201518160020190816104e29190611e37565b50606082015181600301556080820151816004015560a08201518160050160006101000a81548160ff02191690831515021790555050506003826040516105299190611f45565b90815260200160405180910390206040518060c0016040528060005481526020018581526020018481526020018381526020014281526020016000151581525090806001815401808255809150506001900390600052602060002090600602016000909190919091506000820151816000015560208201518160010190816105b19190611e37565b5060408201518160020190816105c79190611e37565b50606082015181600301556080820151816004015560a08201518160050160006101000a81548160ff021916908315150217905550505060048260405161060e9190611f45565b90815260200160405180910390206040518060c0016040528060005481526020018581526020018481526020018381526020014281526020016000151581525090806001815401808255809150506001900390600052602060002090600602016000909190919091506000820151816000015560208201518160010190816106969190611e37565b5060408201518160020190816106ac9190611e37565b50606082015181600301556080820151816004015560a08201518160050160006101000a81548160ff021916908315150217905550505060016000808282546106f59190611f8b565b925050819055508260405161070a9190611f45565b6040518091039020826040516107209190611f45565b60405180910390207f2eb5a5afbe330c720b569c62a4c06cc1d9562eeadf2d5ffa3af175408e69b91460405160405180910390a3505050565b600060038360405161076b9190611f45565b9081526020016040518091039020828154811061078b5761078a611fbf565b5b90600052602060002090600602016040518060c0016040529081600082015481526020016001820180546107be90611c5a565b80601f01602080910402602001604051908101604052809291908181526020018280546107ea90611c5a565b80156108375780601f1061080c57610100808354040283529160200191610837565b820191906000526020600020905b81548152906001019060200180831161081a57829003601f168201915b5050505050815260200160028201805461085090611c5a565b80601f016020809104026020016040519081016040528092919081815260200182805461087c90611c5a565b80156108c95780601f1061089e576101008083540402835291602001916108c9565b820191906000526020600020905b8154815290600101906020018083116108ac57829003601f168201915b5050505050815260200160038201548152602001600482015481526020016005820160009054906101000a900460ff161515151581525050905060008160600151905080341015610946576040517fcdcdc2a800000000000000000000000000000000000000000000000000000000815260040160405180910390fd5b34600160008282546109589190611f8b565b9250508190555060018260a001901515908115158152505060006002848154811061098657610985611fbf565b5b90600052602060002090600602016040518060c0016040529081600082015481526020016001820180546109b990611c5a565b80601f01602080910402602001604051908101604052809291908181526020018280546109e590611c5a565b8015610a325780601f10610a0757610100808354040283529160200191610a32565b820191906000526020600020905b815481529060010190602001808311610a1557829003601f168201915b50505050508152602001600282018054610a4b90611c5a565b80601f0160208091040260200160405190810160405280929190818152602001828054610a7790611c5a565b8015610ac45780601f10610a9957610100808354040283529160200191610ac4565b820191906000526020600020905b815481529060010190602001808311610aa757829003601f168201915b5050505050815260200160038201548152602001600482015481526020016005820160009054906101000a900460ff161515151581525050905060028481548110610b1257610b11611fbf565b5b9060005260206000209060060201600080820160009055600182016000610b39919061157e565b600282016000610b49919061157e565b600382016000905560048201600090556005820160006101000a81549060ff0219169055505060026040518060c001604052808360000151815260200183602001518152602001836040015181526020018360600151815260200183608001518152602001600115158152509080600181540180825580915050600190039060005260206000209060060201600090919091909150600082015181600001556020820151816001019081610bfd9190611e37565b506040820151816002019081610c139190611e37565b50606082015181600301556080820151816004015560a08201518160050160006101000a81548160ff02191690831515021790555050506001600386604051610c5c9190611f45565b90815260200160405180910390208581548110610c7c57610c7b611fbf565b5b906000526020600020906006020160050160006101000a81548160ff021916908315150217905550600485604051610cb49190611f45565b90815260200160405180910390208481548110610cd457610cd3611fbf565b5b9060005260206000209060060201600080820160009055600182016000610cfb919061157e565b600282016000610d0b919061157e565b600382016000905560048201600090556005820160006101000a81549060ff02191690555050600585604051610d419190611f45565b9081526020016040518091039020839080600181540180825580915050600190039060005260206000209060060201600090919091909150600082015181600001556020820151816001019081610d989190611e37565b506040820151816002019081610dae9190611e37565b50606082015181600301556080820151816004015560a08201518160050160006101000a81548160ff021916908315150217905550505084604051610df39190611f45565b6040518091039020847fe28e2edd34dc43f8e5cfe399e8462a1057a879b384d9195699ff890334ae08ec60405160405180910390a35050505050565b6060600482604051610e419190611f45565b9081526020016040518091039020805480602002602001604051908101604052809291908181526020016000905b82821015610ffe57838290600052602060002090600602016040518060c001604052908160008201548152602001600182018054610eac90611c5a565b80601f0160208091040260200160405190810160405280929190818152602001828054610ed890611c5a565b8015610f255780601f10610efa57610100808354040283529160200191610f25565b820191906000526020600020905b815481529060010190602001808311610f0857829003601f168201915b50505050508152602001600282018054610f3e90611c5a565b80601f0160208091040260200160405190810160405280929190818152602001828054610f6a90611c5a565b8015610fb75780601f10610f8c57610100808354040283529160200191610fb7565b820191906000526020600020905b815481529060010190602001808311610f9a57829003601f168201915b5050505050815260200160038201548152602001600482015481526020016005820160009054906101000a900460ff16151515158152505081526020019060010190610e6f565b505050509050919050565b606060038260405161101b9190611f45565b9081526020016040518091039020805480602002602001604051908101604052809291908181526020016000905b828210156111d857838290600052602060002090600602016040518060c00160405290816000820154815260200160018201805461108690611c5a565b80601f01602080910402602001604051908101604052809291908181526020018280546110b290611c5a565b80156110ff5780601f106110d4576101008083540402835291602001916110ff565b820191906000526020600020905b8154815290600101906020018083116110e257829003601f168201915b5050505050815260200160028201805461111890611c5a565b80601f016020809104026020016040519081016040528092919081815260200182805461114490611c5a565b80156111915780601f1061116657610100808354040283529160200191611191565b820191906000526020600020905b81548152906001019060200180831161117457829003601f168201915b5050505050815260200160038201548152602001600482015481526020016005820160009054906101000a900460ff16151515158152505081526020019060010190611049565b505050509050919050565b60007f0000000000000000000000000000000000000000000000000000000000000000905090565b606060058260405161121d9190611f45565b9081526020016040518091039020805480602002602001604051908101604052809291908181526020016000905b828210156113da57838290600052602060002090600602016040518060c00160405290816000820154815260200160018201805461128890611c5a565b80601f01602080910402602001604051908101604052809291908181526020018280546112b490611c5a565b80156113015780601f106112d657610100808354040283529160200191611301565b820191906000526020600020905b8154815290600101906020018083116112e457829003601f168201915b5050505050815260200160028201805461131a90611c5a565b80601f016020809104026020016040519081016040528092919081815260200182805461134690611c5a565b80156113935780601f1061136857610100808354040283529160200191611393565b820191906000526020600020905b81548152906001019060200180831161137657829003601f168201915b5050505050815260200160038201548152602001600482015481526020016005820160009054906101000a900460ff1615151515815250508152602001906001019061124b565b505050509050919050565b6113ed6115be565b6002828154811061140157611400611fbf565b5b90600052602060002090600602016040518060c00160405290816000820154815260200160018201805461143490611c5a565b80601f016020809104026020016040519081016040528092919081815260200182805461146090611c5a565b80156114ad5780601f10611482576101008083540402835291602001916114ad565b820191906000526020600020905b81548152906001019060200180831161149057829003601f168201915b505050505081526020016002820180546114c690611c5a565b80601f01602080910402602001604051908101604052809291908181526020018280546114f290611c5a565b801561153f5780601f106115145761010080835404028352916020019161153f565b820191906000526020600020905b81548152906001019060200180831161152257829003601f168201915b5050505050815260200160038201548152602001600482015481526020016005820160009054906101000a900460ff1615151515815250509050919050565b50805461158a90611c5a565b6000825580601f1061159c57506115bb565b601f0160209004906000526020600020908101906115ba91906115f6565b5b50565b6040518060c0016040528060008152602001606081526020016060815260200160008152602001600081526020016000151581525090565b5b8082111561160f5760008160009055506001016115f7565b5090565b600081519050919050565b600082825260208201905092915050565b6000819050602082019050919050565b6000819050919050565b6116528161163f565b82525050565b600081519050919050565b600082825260208201905092915050565b60005b83811015611692578082015181840152602081019050611677565b60008484015250505050565b6000601f19601f8301169050919050565b60006116ba82611658565b6116c48185611663565b93506116d4818560208601611674565b6116dd8161169e565b840191505092915050565b60008115159050919050565b6116fd816116e8565b82525050565b600060c08301600083015161171b6000860182611649565b506020830151848203602086015261173382826116af565b9150506040830151848203604086015261174d82826116af565b91505060608301516117626060860182611649565b5060808301516117756080860182611649565b5060a083015161178860a08601826116f4565b508091505092915050565b600061179f8383611703565b905092915050565b6000602082019050919050565b60006117bf82611613565b6117c9818561161e565b9350836020820285016117db8561162f565b8060005b8581101561181757848403895281516117f88582611793565b9450611803836117a7565b925060208a019950506001810190506117df565b50829750879550505050505092915050565b6000602082019050818103600083015261184381846117b4565b905092915050565b6000604051905090565b600080fd5b600080fd5b600080fd5b600080fd5b7f4e487b7100000000000000000000000000000000000000000000000000000000600052604160045260246000fd5b6118a18261169e565b810181811067ffffffffffffffff821117156118c0576118bf611869565b5b80604052505050565b60006118d361184b565b90506118df8282611898565b919050565b600067ffffffffffffffff8211156118ff576118fe611869565b5b6119088261169e565b9050602081019050919050565b82818337600083830152505050565b6000611937611932846118e4565b6118c9565b90508281526020810184848401111561195357611952611864565b5b61195e848285611915565b509392505050565b600082601f83011261197b5761197a61185f565b5b813561198b848260208601611924565b91505092915050565b61199d8161163f565b81146119a857600080fd5b50565b6000813590506119ba81611994565b92915050565b6000806000606084860312156119d9576119d8611855565b5b600084013567ffffffffffffffff8111156119f7576119f661185a565b5b611a0386828701611966565b935050602084013567ffffffffffffffff811115611a2457611a2361185a565b5b611a3086828701611966565b9250506040611a41868287016119ab565b9150509250925092565b60008060408385031215611a6257611a61611855565b5b600083013567ffffffffffffffff811115611a8057611a7f61185a565b5b611a8c85828601611966565b9250506020611a9d858286016119ab565b9150509250929050565b600060208284031215611abd57611abc611855565b5b600082013567ffffffffffffffff811115611adb57611ada61185a565b5b611ae784828501611966565b91505092915050565b600073ffffffffffffffffffffffffffffffffffffffff82169050919050565b6000611b1b82611af0565b9050919050565b611b2b81611b10565b82525050565b6000602082019050611b466000830184611b22565b92915050565b600060208284031215611b6257611b61611855565b5b6000611b70848285016119ab565b91505092915050565b600060c083016000830151611b916000860182611649565b5060208301518482036020860152611ba982826116af565b91505060408301518482036040860152611bc382826116af565b9150506060830151611bd86060860182611649565b506080830151611beb6080860182611649565b5060a0830151611bfe60a08601826116f4565b508091505092915050565b60006020820190508181036000830152611c238184611b79565b905092915050565b7f4e487b7100000000000000000000000000000000000000000000000000000000600052602260045260246000fd5b60006002820490506001821680611c7257607f821691505b602082108103611c8557611c84611c2b565b5b50919050565b60008190508160005260206000209050919050565b60006020601f8301049050919050565b600082821b905092915050565b600060088302611ced7fffffffffffffffffffffffffffffffffffffffffffffffffffffffffffffffff82611cb0565b611cf78683611cb0565b95508019841693508086168417925050509392505050565b6000819050919050565b6000611d34611d2f611d2a8461163f565b611d0f565b61163f565b9050919050565b6000819050919050565b611d4e83611d19565b611d62611d5a82611d3b565b848454611cbd565b825550505050565b600090565b611d77611d6a565b611d82818484611d45565b505050565b5b81811015611da657611d9b600082611d6f565b600181019050611d88565b5050565b601f821115611deb57611dbc81611c8b565b611dc584611ca0565b81016020851015611dd4578190505b611de8611de085611ca0565b830182611d87565b50505b505050565b600082821c905092915050565b6000611e0e60001984600802611df0565b1980831691505092915050565b6000611e278383611dfd565b9150826002028217905092915050565b611e4082611658565b67ffffffffffffffff811115611e5957611e58611869565b5b611e638254611c5a565b611e6e828285611daa565b600060209050601f831160018114611ea15760008415611e8f578287015190505b611e998582611e1b565b865550611f01565b601f198416611eaf86611c8b565b60005b82811015611ed757848901518255600182019150602085019450602081019050611eb2565b86831015611ef45784890151611ef0601f891682611dfd565b8355505b6001600288020188555050505b505050505050565b600081905092915050565b6000611f1f82611658565b611f298185611f09565b9350611f39818560208601611674565b80840191505092915050565b6000611f518284611f14565b915081905092915050565b7f4e487b7100000000000000000000000000000000000000000000000000000000600052601160045260246000fd5b6000611f968261163f565b9150611fa18361163f565b9250828201905080821115611fb957611fb8611f5c565b5b92915050565b7f4e487b7100000000000000000000000000000000000000000000000000000000600052603260045260246000fdfea2646970667358221220fd75fc5301eb1281098ee9e108fc607e00a0cff8c33e4bced6cc74e33d6f8ffb64736f6c63430008110033","opcodes":"PUSH1 0xA0 PUSH1 0x40 MSTORE CALLVALUE DUP1 ISZERO PUSH2 0x10 JUMPI PUSH1 0x0 DUP1 REVERT JUMPDEST POP CALLER PUSH20 0xFFFFFFFFFFFFFFFFFFFFFFFFFFFFFFFFFFFFFFFF AND PUSH1 0x80 DUP2 PUSH20 0xFFFFFFFFFFFFFFFFFFFFFFFFFFFFFFFFFFFFFFFF AND DUP2 MSTORE POP POP PUSH1 0x0 DUP1 DUP2 SWAP1 SSTORE POP PUSH1 0x0 PUSH1 0x1 DUP2 SWAP1 SSTORE POP PUSH1 0x80 MLOAD PUSH2 0x2024 PUSH2 0x76 PUSH1 0x0 CODECOPY PUSH1 0x0 DUP2 DUP2 PUSH2 0x3CD ADD MSTORE PUSH2 0x11E7 ADD MSTORE PUSH2 0x2024 PUSH1 0x0 RETURN INVALID PUSH1 0x80 PUSH1 0x40 MSTORE PUSH1 0x4 CALLDATASIZE LT PUSH2 0x7B JUMPI PUSH1 0x0 CALLDATALOAD PUSH1 0xE0 SHR DUP1 PUSH4 0x7D71C9E7 GT PUSH2 0x4E JUMPI DUP1 PUSH4 0x7D71C9E7 EQ PUSH2 0x12D JUMPI DUP1 PUSH4 0xB2E6B912 EQ PUSH2 0x16A JUMPI DUP1 PUSH4 0xCDF8254B EQ PUSH2 0x195 JUMPI DUP1 PUSH4 0xFF99A063 EQ PUSH2 0x1D2 JUMPI PUSH2 0x7B JUMP JUMPDEST DUP1 PUSH4 0x3E96FE3 EQ PUSH2 0x80 JUMPI DUP1 PUSH4 0x1AF4D702 EQ PUSH2 0xAB JUMPI DUP1 PUSH4 0x4FD77FF3 EQ PUSH2 0xD4 JUMPI DUP1 PUSH4 0x5153E8DD EQ PUSH2 0xF0 JUMPI JUMPDEST PUSH1 0x0 DUP1 REVERT JUMPDEST CALLVALUE DUP1 ISZERO PUSH2 0x8C JUMPI PUSH1 0x0 DUP1 REVERT JUMPDEST POP PUSH2 0x95 PUSH2 0x20F JUMP JUMPDEST PUSH1 0x40 MLOAD PUSH2 0xA2 SWAP2 SWAP1 PUSH2 0x1829 JUMP JUMPDEST PUSH1 0x40 MLOAD DUP1 SWAP2 SUB SWAP1 RETURN JUMPDEST CALLVALUE DUP1 ISZERO PUSH2 0xB7 JUMPI PUSH1 0x0 DUP1 REVERT JUMPDEST POP PUSH2 0xD2 PUSH1 0x4 DUP1 CALLDATASIZE SUB DUP2 ADD SWAP1 PUSH2 0xCD SWAP2 SWAP1 PUSH2 0x19C0 JUMP JUMPDEST PUSH2 0x3CB JUMP JUMPDEST STOP JUMPDEST PUSH2 0xEE PUSH1 0x4 DUP1 CALLDATASIZE SUB DUP2 ADD SWAP1 PUSH2 0xE9 SWAP2 SWAP1 PUSH2 0x1A4B JUMP JUMPDEST PUSH2 0x759 JUMP JUMPDEST STOP JUMPDEST CALLVALUE DUP1 ISZERO PUSH2 0xFC JUMPI PUSH1 0x0 DUP1 REVERT JUMPDEST POP PUSH2 0x117 PUSH1 0x4 DUP1 CALLDATASIZE SUB DUP2 ADD SWAP1 PUSH2 0x112 SWAP2 SWAP1 PUSH2 0x1AA7 JUMP JUMPDEST PUSH2 0xE2F JUMP JUMPDEST PUSH1 0x40 MLOAD PUSH2 0x124 SWAP2 SWAP1 PUSH2 0x1829 JUMP JUMPDEST PUSH1 0x40 MLOAD DUP1 SWAP2 SUB SWAP1 RETURN JUMPDEST CALLVALUE DUP1 ISZERO PUSH2 0x139 JUMPI PUSH1 0x0 DUP1 REVERT JUMPDEST POP PUSH2 0x154 PUSH1 0x4 DUP1 CALLDATASIZE SUB DUP2 ADD SWAP1 PUSH2 0x14F SWAP2 SWAP1 PUSH2 0x1AA7 JUMP JUMPDEST PUSH2 0x1009 JUMP JUMPDEST PUSH1 0x40 MLOAD PUSH2 0x161 SWAP2 SWAP1 PUSH2 0x1829 JUMP JUMPDEST PUSH1 0x40 MLOAD DUP1 SWAP2 SUB SWAP1 RETURN JUMPDEST CALLVALUE DUP1 ISZERO PUSH2 0x176 JUMPI PUSH1 0x0 DUP1 REVERT JUMPDEST POP PUSH2 0x17F PUSH2 0x11E3 JUMP JUMPDEST PUSH1 0x40 MLOAD PUSH2 0x18C SWAP2 SWAP1 PUSH2 0x1B31 JUMP JUMPDEST PUSH1 0x40 MLOAD DUP1 SWAP2 SUB SWAP1 RETURN JUMPDEST CALLVALUE DUP1 ISZERO PUSH2 0x1A1 JUMPI PUSH1 0x0 DUP1 REVERT JUMPDEST POP PUSH2 0x1BC PUSH1 0x4 DUP1 CALLDATASIZE SUB DUP2 ADD SWAP1 PUSH2 0x1B7 SWAP2 SWAP1 PUSH2 0x1AA7 JUMP JUMPDEST PUSH2 0x120B JUMP JUMPDEST PUSH1 0x40 MLOAD PUSH2 0x1C9 SWAP2 SWAP1 PUSH2 0x1829 JUMP JUMPDEST PUSH1 0x40 MLOAD DUP1 SWAP2 SUB SWAP1 RETURN JUMPDEST CALLVALUE DUP1 ISZERO PUSH2 0x1DE JUMPI PUSH1 0x0 DUP1 REVERT JUMPDEST POP PUSH2 0x1F9 PUSH1 0x4 DUP1 CALLDATASIZE SUB DUP2 ADD SWAP1 PUSH2 0x1F4 SWAP2 SWAP1 PUSH2 0x1B4C JUMP JUMPDEST PUSH2 0x13E5 JUMP JUMPDEST PUSH1 0x40 MLOAD PUSH2 0x206 SWAP2 SWAP1 PUSH2 0x1C09 JUMP JUMPDEST PUSH1 0x40 MLOAD DUP1 SWAP2 SUB SWAP1 RETURN JUMPDEST PUSH1 0x60 PUSH1 0x2 DUP1 SLOAD DUP1 PUSH1 0x20 MUL PUSH1 0x20 ADD PUSH1 0x40 MLOAD SWAP1 DUP2 ADD PUSH1 0x40 MSTORE DUP1 SWAP3 SWAP2 SWAP1 DUP2 DUP2 MSTORE PUSH1 0x20 ADD PUSH1 0x0 SWAP1 JUMPDEST DUP3 DUP3 LT ISZERO PUSH2 0x3C2 JUMPI DUP4 DUP3 SWAP1 PUSH1 0x0 MSTORE PUSH1 0x20 PUSH1 0x0 KECCAK256 SWAP1 PUSH1 0x6 MUL ADD PUSH1 0x40 MLOAD DUP1 PUSH1 0xC0 ADD PUSH1 0x40 MSTORE SWAP1 DUP2 PUSH1 0x0 DUP3 ADD SLOAD DUP2 MSTORE PUSH1 0x20 ADD PUSH1 0x1 DUP3 ADD DUP1 SLOAD PUSH2 0x270 SWAP1 PUSH2 0x1C5A JUMP JUMPDEST DUP1 PUSH1 0x1F ADD PUSH1 0x20 DUP1 SWAP2 DIV MUL PUSH1 0x20 ADD PUSH1 0x40 MLOAD SWAP1 DUP2 ADD PUSH1 0x40 MSTORE DUP1 SWAP3 SWAP2 SWAP1 DUP2 DUP2 MSTORE PUSH1 0x20 ADD DUP3 DUP1 SLOAD PUSH2 0x29C SWAP1 PUSH2 0x1C5A JUMP JUMPDEST DUP1 ISZERO PUSH2 0x2E9 JUMPI DUP1 PUSH1 0x1F LT PUSH2 0x2BE JUMPI PUSH2 0x100 DUP1 DUP4 SLOAD DIV MUL DUP4 MSTORE SWAP2 PUSH1 0x20 ADD SWAP2 PUSH2 0x2E9 JUMP JUMPDEST DUP3 ADD SWAP2 SWAP1 PUSH1 0x0 MSTORE PUSH1 0x20 PUSH1 0x0 KECCAK256 SWAP1 JUMPDEST DUP2 SLOAD DUP2 MSTORE SWAP1 PUSH1 0x1 ADD SWAP1 PUSH1 0x20 ADD DUP1 DUP4 GT PUSH2 0x2CC JUMPI DUP3 SWAP1 SUB PUSH1 0x1F AND DUP3 ADD SWAP2 JUMPDEST POP POP POP POP POP DUP2 MSTORE PUSH1 0x20 ADD PUSH1 0x2 DUP3 ADD DUP1 SLOAD PUSH2 0x302 SWAP1 PUSH2 0x1C5A JUMP JUMPDEST DUP1 PUSH1 0x1F ADD PUSH1 0x20 DUP1 SWAP2 DIV MUL PUSH1 0x20 ADD PUSH1 0x40 MLOAD SWAP1 DUP2 ADD PUSH1 0x40 MSTORE DUP1 SWAP3 SWAP2 SWAP1 DUP2 DUP2 MSTORE PUSH1 0x20 ADD DUP3 DUP1 SLOAD PUSH2 0x32E SWAP1 PUSH2 0x1C5A JUMP JUMPDEST DUP1 ISZERO PUSH2 0x37B JUMPI DUP1 PUSH1 0x1F LT PUSH2 0x350 JUMPI PUSH2 0x100 DUP1 DUP4 SLOAD DIV MUL DUP4 MSTORE SWAP2 PUSH1 0x20 ADD SWAP2 PUSH2 0x37B JUMP JUMPDEST DUP3 ADD SWAP2 SWAP1 PUSH1 0x0 MSTORE PUSH1 0x20 PUSH1 0x0 KECCAK256 SWAP1 JUMPDEST DUP2 SLOAD DUP2 MSTORE SWAP1 PUSH1 0x1 ADD SWAP1 PUSH1 0x20 ADD DUP1 DUP4 GT PUSH2 0x35E JUMPI DUP3 SWAP1 SUB PUSH1 0x1F AND DUP3 ADD SWAP2 JUMPDEST POP POP POP POP POP DUP2 MSTORE PUSH1 0x20 ADD PUSH1 0x3 DUP3 ADD SLOAD DUP2 MSTORE PUSH1 0x20 ADD PUSH1 0x4 DUP3 ADD SLOAD DUP2 MSTORE PUSH1 0x20 ADD PUSH1 0x5 DUP3 ADD PUSH1 0x0 SWAP1 SLOAD SWAP1 PUSH2 0x100 EXP SWAP1 DIV PUSH1 0xFF AND ISZERO ISZERO ISZERO ISZERO DUP2 MSTORE POP POP DUP2 MSTORE PUSH1 0x20 ADD SWAP1 PUSH1 0x1 ADD SWAP1 PUSH2 0x233 JUMP JUMPDEST POP POP POP POP SWAP1 POP SWAP1 JUMP JUMPDEST PUSH32 0x0 PUSH20 0xFFFFFFFFFFFFFFFFFFFFFFFFFFFFFFFFFFFFFFFF AND CALLER PUSH20 0xFFFFFFFFFFFFFFFFFFFFFFFFFFFFFFFFFFFFFFFF AND EQ PUSH2 0x450 JUMPI PUSH1 0x40 MLOAD PUSH32 0xDAF2766300000000000000000000000000000000000000000000000000000000 DUP2 MSTORE PUSH1 0x4 ADD PUSH1 0x40 MLOAD DUP1 SWAP2 SUB SWAP1 REVERT JUMPDEST PUSH1 0x2 PUSH1 0x40 MLOAD DUP1 PUSH1 0xC0 ADD PUSH1 0x40 MSTORE DUP1 PUSH1 0x0 SLOAD DUP2 MSTORE PUSH1 0x20 ADD DUP6 DUP2 MSTORE PUSH1 0x20 ADD DUP5 DUP2 MSTORE PUSH1 0x20 ADD DUP4 DUP2 MSTORE PUSH1 0x20 ADD TIMESTAMP DUP2 MSTORE PUSH1 0x20 ADD PUSH1 0x0 ISZERO ISZERO DUP2 MSTORE POP SWAP1 DUP1 PUSH1 0x1 DUP2 SLOAD ADD DUP1 DUP3 SSTORE DUP1 SWAP2 POP POP PUSH1 0x1 SWAP1 SUB SWAP1 PUSH1 0x0 MSTORE PUSH1 0x20 PUSH1 0x0 KECCAK256 SWAP1 PUSH1 0x6 MUL ADD PUSH1 0x0 SWAP1 SWAP2 SWAP1 SWAP2 SWAP1 SWAP2 POP PUSH1 0x0 DUP3 ADD MLOAD DUP2 PUSH1 0x0 ADD SSTORE PUSH1 0x20 DUP3 ADD MLOAD DUP2 PUSH1 0x1 ADD SWAP1 DUP2 PUSH2 0x4CC SWAP2 SWAP1 PUSH2 0x1E37 JUMP JUMPDEST POP PUSH1 0x40 DUP3 ADD MLOAD DUP2 PUSH1 0x2 ADD SWAP1 DUP2 PUSH2 0x4E2 SWAP2 SWAP1 PUSH2 0x1E37 JUMP JUMPDEST POP PUSH1 0x60 DUP3 ADD MLOAD DUP2 PUSH1 0x3 ADD SSTORE PUSH1 0x80 DUP3 ADD MLOAD DUP2 PUSH1 0x4 ADD SSTORE PUSH1 0xA0 DUP3 ADD MLOAD DUP2 PUSH1 0x5 ADD PUSH1 0x0 PUSH2 0x100 EXP DUP2 SLOAD DUP2 PUSH1 0xFF MUL NOT AND SWAP1 DUP4 ISZERO ISZERO MUL OR SWAP1 SSTORE POP POP POP PUSH1 0x3 DUP3 PUSH1 0x40 MLOAD PUSH2 0x529 SWAP2 SWAP1 PUSH2 0x1F45 JUMP JUMPDEST SWAP1 DUP2 MSTORE PUSH1 0x20 ADD PUSH1 0x40 MLOAD DUP1 SWAP2 SUB SWAP1 KECCAK256 PUSH1 0x40 MLOAD DUP1 PUSH1 0xC0 ADD PUSH1 0x40 MSTORE DUP1 PUSH1 0x0 SLOAD DUP2 MSTORE PUSH1 0x20 ADD DUP6 DUP2 MSTORE PUSH1 0x20 ADD DUP5 DUP2 MSTORE PUSH1 0x20 ADD DUP4 DUP2 MSTORE PUSH1 0x20 ADD TIMESTAMP DUP2 MSTORE PUSH1 0x20 ADD PUSH1 0x0 ISZERO ISZERO DUP2 MSTORE POP SWAP1 DUP1 PUSH1 0x1 DUP2 SLOAD ADD DUP1 DUP3 SSTORE DUP1 SWAP2 POP POP PUSH1 0x1 SWAP1 SUB SWAP1 PUSH1 0x0 MSTORE PUSH1 0x20 PUSH1 0x0 KECCAK256 SWAP1 PUSH1 0x6 MUL ADD PUSH1 0x0 SWAP1 SWAP2 SWAP1 SWAP2 SWAP1 SWAP2 POP PUSH1 0x0 DUP3 ADD MLOAD DUP2 PUSH1 0x0 ADD SSTORE PUSH1 0x20 DUP3 ADD MLOAD DUP2 PUSH1 0x1 ADD SWAP1 DUP2 PUSH2 0x5B1 SWAP2 SWAP1 PUSH2 0x1E37 JUMP JUMPDEST POP PUSH1 0x40 DUP3 ADD MLOAD DUP2 PUSH1 0x2 ADD SWAP1 DUP2 PUSH2 0x5C7 SWAP2 SWAP1 PUSH2 0x1E37 JUMP JUMPDEST POP PUSH1 0x60 DUP3 ADD MLOAD DUP2 PUSH1 0x3 ADD SSTORE PUSH1 0x80 DUP3 ADD MLOAD DUP2 PUSH1 0x4 ADD SSTORE PUSH1 0xA0 DUP3 ADD MLOAD DUP2 PUSH1 0x5 ADD PUSH1 0x0 PUSH2 0x100 EXP DUP2 SLOAD DUP2 PUSH1 0xFF MUL NOT AND SWAP1 DUP4 ISZERO ISZERO MUL OR SWAP1 SSTORE POP POP POP PUSH1 0x4 DUP3 PUSH1 0x40 MLOAD PUSH2 0x60E SWAP2 SWAP1 PUSH2 0x1F45 JUMP JUMPDEST SWAP1 DUP2 MSTORE PUSH1 0x20 ADD PUSH1 0x40 MLOAD DUP1 SWAP2 SUB SWAP1 KECCAK256 PUSH1 0x40 MLOAD DUP1 PUSH1 0xC0 ADD PUSH1 0x40 MSTORE DUP1 PUSH1 0x0 SLOAD DUP2 MSTORE PUSH1 0x20 ADD DUP6 DUP2 MSTORE PUSH1 0x20 ADD DUP5 DUP2 MSTORE PUSH1 0x20 ADD DUP4 DUP2 MSTORE PUSH1 0x20 ADD TIMESTAMP DUP2 MSTORE PUSH1 0x20 ADD PUSH1 0x0 ISZERO ISZERO DUP2 MSTORE POP SWAP1 DUP1 PUSH1 0x1 DUP2 SLOAD ADD DUP1 DUP3 SSTORE DUP1 SWAP2 POP POP PUSH1 0x1 SWAP1 SUB SWAP1 PUSH1 0x0 MSTORE PUSH1 0x20 PUSH1 0x0 KECCAK256 SWAP1 PUSH1 0x6 MUL ADD PUSH1 0x0 SWAP1 SWAP2 SWAP1 SWAP2 SWAP1 SWAP2 POP PUSH1 0x0 DUP3 ADD MLOAD DUP2 PUSH1 0x0 ADD SSTORE PUSH1 0x20 DUP3 ADD MLOAD DUP2 PUSH1 0x1 ADD SWAP1 DUP2 PUSH2 0x696 SWAP2 SWAP1 PUSH2 0x1E37 JUMP JUMPDEST POP PUSH1 0x40 DUP3 ADD MLOAD DUP2 PUSH1 0x2 ADD SWAP1 DUP2 PUSH2 0x6AC SWAP2 SWAP1 PUSH2 0x1E37 JUMP JUMPDEST POP PUSH1 0x60 DUP3 ADD MLOAD DUP2 PUSH1 0x3 ADD SSTORE PUSH1 0x80 DUP3 ADD MLOAD DUP2 PUSH1 0x4 ADD SSTORE PUSH1 0xA0 DUP3 ADD MLOAD DUP2 PUSH1 0x5 ADD PUSH1 0x0 PUSH2 0x100 EXP DUP2 SLOAD DUP2 PUSH1 0xFF MUL NOT AND SWAP1 DUP4 ISZERO ISZERO MUL OR SWAP1 SSTORE POP POP POP PUSH1 0x1 PUSH1 0x0 DUP1 DUP3 DUP3 SLOAD PUSH2 0x6F5 SWAP2 SWAP1 PUSH2 0x1F8B JUMP JUMPDEST SWAP3 POP POP DUP2 SWAP1 SSTORE POP DUP3 PUSH1 0x40 MLOAD PUSH2 0x70A SWAP2 SWAP1 PUSH2 0x1F45 JUMP JUMPDEST PUSH1 0x40 MLOAD DUP1 SWAP2 SUB SWAP1 KECCAK256 DUP3 PUSH1 0x40 MLOAD PUSH2 0x720 SWAP2 SWAP1 PUSH2 0x1F45 JUMP JUMPDEST PUSH1 0x40 MLOAD DUP1 SWAP2 SUB SWAP1 KECCAK256 PUSH32 0x2EB5A5AFBE330C720B569C62A4C06CC1D9562EEADF2D5FFA3AF175408E69B914 PUSH1 0x40 MLOAD PUSH1 0x40 MLOAD DUP1 SWAP2 SUB SWAP1 LOG3 POP POP POP JUMP JUMPDEST PUSH1 0x0 PUSH1 0x3 DUP4 PUSH1 0x40 MLOAD PUSH2 0x76B SWAP2 SWAP1 PUSH2 0x1F45 JUMP JUMPDEST SWAP1 DUP2 MSTORE PUSH1 0x20 ADD PUSH1 0x40 MLOAD DUP1 SWAP2 SUB SWAP1 KECCAK256 DUP3 DUP2 SLOAD DUP2 LT PUSH2 0x78B JUMPI PUSH2 0x78A PUSH2 0x1FBF JUMP JUMPDEST JUMPDEST SWAP1 PUSH1 0x0 MSTORE PUSH1 0x20 PUSH1 0x0 KECCAK256 SWAP1 PUSH1 0x6 MUL ADD PUSH1 0x40 MLOAD DUP1 PUSH1 0xC0 ADD PUSH1 0x40 MSTORE SWAP1 DUP2 PUSH1 0x0 DUP3 ADD SLOAD DUP2 MSTORE PUSH1 0x20 ADD PUSH1 0x1 DUP3 ADD DUP1 SLOAD PUSH2 0x7BE SWAP1 PUSH2 0x1C5A JUMP JUMPDEST DUP1 PUSH1 0x1F ADD PUSH1 0x20 DUP1 SWAP2 DIV MUL PUSH1 0x20 ADD PUSH1 0x40 MLOAD SWAP1 DUP2 ADD PUSH1 0x40 MSTORE DUP1 SWAP3 SWAP2 SWAP1 DUP2 DUP2 MSTORE PUSH1 0x20 ADD DUP3 DUP1 SLOAD PUSH2 0x7EA SWAP1 PUSH2 0x1C5A JUMP JUMPDEST DUP1 ISZERO PUSH2 0x837 JUMPI DUP1 PUSH1 0x1F LT PUSH2 0x80C JUMPI PUSH2 0x100 DUP1 DUP4 SLOAD DIV MUL DUP4 MSTORE SWAP2 PUSH1 0x20 ADD SWAP2 PUSH2 0x837 JUMP JUMPDEST DUP3 ADD SWAP2 SWAP1 PUSH1 0x0 MSTORE PUSH1 0x20 PUSH1 0x0 KECCAK256 SWAP1 JUMPDEST DUP2 SLOAD DUP2 MSTORE SWAP1 PUSH1 0x1 ADD SWAP1 PUSH1 0x20 ADD DUP1 DUP4 GT PUSH2 0x81A JUMPI DUP3 SWAP1 SUB PUSH1 0x1F AND DUP3 ADD SWAP2 JUMPDEST POP POP POP POP POP DUP2 MSTORE PUSH1 0x20 ADD PUSH1 0x2 DUP3 ADD DUP1 SLOAD PUSH2 0x850 SWAP1 PUSH2 0x1C5A JUMP JUMPDEST DUP1 PUSH1 0x1F ADD PUSH1 0x20 DUP1 SWAP2 DIV MUL PUSH1 0x20 ADD PUSH1 0x40 MLOAD SWAP1 DUP2 ADD PUSH1 0x40 MSTORE DUP1 SWAP3 SWAP2 SWAP1 DUP2 DUP2 MSTORE PUSH1 0x20 ADD DUP3 DUP1 SLOAD PUSH2 0x87C SWAP1 PUSH2 0x1C5A JUMP JUMPDEST DUP1 ISZERO PUSH2 0x8C9 JUMPI DUP1 PUSH1 0x1F LT PUSH2 0x89E JUMPI PUSH2 0x100 DUP1 DUP4 SLOAD DIV MUL DUP4 MSTORE SWAP2 PUSH1 0x20 ADD SWAP2 PUSH2 0x8C9 JUMP JUMPDEST DUP3 ADD SWAP2 SWAP1 PUSH1 0x0 MSTORE PUSH1 0x20 PUSH1 0x0 KECCAK256 SWAP1 JUMPDEST DUP2 SLOAD DUP2 MSTORE SWAP1 PUSH1 0x1 ADD SWAP1 PUSH1 0x20 ADD DUP1 DUP4 GT PUSH2 0x8AC JUMPI DUP3 SWAP1 SUB PUSH1 0x1F AND DUP3 ADD SWAP2 JUMPDEST POP POP POP POP POP DUP2 MSTORE PUSH1 0x20 ADD PUSH1 0x3 DUP3 ADD SLOAD DUP2 MSTORE PUSH1 0x20 ADD PUSH1 0x4 DUP3 ADD SLOAD DUP2 MSTORE PUSH1 0x20 ADD PUSH1 0x5 DUP3 ADD PUSH1 0x0 SWAP1 SLOAD SWAP1 PUSH2 0x100 EXP SWAP1 DIV PUSH1 0xFF AND ISZERO ISZERO ISZERO ISZERO DUP2 MSTORE POP POP SWAP1 POP PUSH1 0x0 DUP2 PUSH1 0x60 ADD MLOAD SWAP1 POP DUP1 CALLVALUE LT ISZERO PUSH2 0x946 JUMPI PUSH1 0x40 MLOAD PUSH32 0xCDCDC2A800000000000000000000000000000000000000000000000000000000 DUP2 MSTORE PUSH1 0x4 ADD PUSH1 0x40 MLOAD DUP1 SWAP2 SUB SWAP1 REVERT JUMPDEST CALLVALUE PUSH1 0x1 PUSH1 0x0 DUP3 DUP3 SLOAD PUSH2 0x958 SWAP2 SWAP1 PUSH2 0x1F8B JUMP JUMPDEST SWAP3 POP POP DUP2 SWAP1 SSTORE POP PUSH1 0x1 DUP3 PUSH1 0xA0 ADD SWAP1 ISZERO ISZERO SWAP1 DUP2 ISZERO ISZERO DUP2 MSTORE POP POP PUSH1 0x0 PUSH1 0x2 DUP5 DUP2 SLOAD DUP2 LT PUSH2 0x986 JUMPI PUSH2 0x985 PUSH2 0x1FBF JUMP JUMPDEST JUMPDEST SWAP1 PUSH1 0x0 MSTORE PUSH1 0x20 PUSH1 0x0 KECCAK256 SWAP1 PUSH1 0x6 MUL ADD PUSH1 0x40 MLOAD DUP1 PUSH1 0xC0 ADD PUSH1 0x40 MSTORE SWAP1 DUP2 PUSH1 0x0 DUP3 ADD SLOAD DUP2 MSTORE PUSH1 0x20 ADD PUSH1 0x1 DUP3 ADD DUP1 SLOAD PUSH2 0x9B9 SWAP1 PUSH2 0x1C5A JUMP JUMPDEST DUP1 PUSH1 0x1F ADD PUSH1 0x20 DUP1 SWAP2 DIV MUL PUSH1 0x20 ADD PUSH1 0x40 MLOAD SWAP1 DUP2 ADD PUSH1 0x40 MSTORE DUP1 SWAP3 SWAP2 SWAP1 DUP2 DUP2 MSTORE PUSH1 0x20 ADD DUP3 DUP1 SLOAD PUSH2 0x9E5 SWAP1 PUSH2 0x1C5A JUMP JUMPDEST DUP1 ISZERO PUSH2 0xA32 JUMPI DUP1 PUSH1 0x1F LT PUSH2 0xA07 JUMPI PUSH2 0x100 DUP1 DUP4 SLOAD DIV MUL DUP4 MSTORE SWAP2 PUSH1 0x20 ADD SWAP2 PUSH2 0xA32 JUMP JUMPDEST DUP3 ADD SWAP2 SWAP1 PUSH1 0x0 MSTORE PUSH1 0x20 PUSH1 0x0 KECCAK256 SWAP1 JUMPDEST DUP2 SLOAD DUP2 MSTORE SWAP1 PUSH1 0x1 ADD SWAP1 PUSH1 0x20 ADD DUP1 DUP4 GT PUSH2 0xA15 JUMPI DUP3 SWAP1 SUB PUSH1 0x1F AND DUP3 ADD SWAP2 JUMPDEST POP POP POP POP POP DUP2 MSTORE PUSH1 0x20 ADD PUSH1 0x2 DUP3 ADD DUP1 SLOAD PUSH2 0xA4B SWAP1 PUSH2 0x1C5A JUMP JUMPDEST DUP1 PUSH1 0x1F ADD PUSH1 0x20 DUP1 SWAP2 DIV MUL PUSH1 0x20 ADD PUSH1 0x40 MLOAD SWAP1 DUP2 ADD PUSH1 0x40 MSTORE DUP1 SWAP3 SWAP2 SWAP1 DUP2 DUP2 MSTORE PUSH1 0x20 ADD DUP3 DUP1 SLOAD PUSH2 0xA77 SWAP1 PUSH2 0x1C5A JUMP JUMPDEST DUP1 ISZERO PUSH2 0xAC4 JUMPI DUP1 PUSH1 0x1F LT PUSH2 0xA99 JUMPI PUSH2 0x100 DUP1 DUP4 SLOAD DIV MUL DUP4 MSTORE SWAP2 PUSH1 0x20 ADD SWAP2 PUSH2 0xAC4 JUMP JUMPDEST DUP3 ADD SWAP2 SWAP1 PUSH1 0x0 MSTORE PUSH1 0x20 PUSH1 0x0 KECCAK256 SWAP1 JUMPDEST DUP2 SLOAD DUP2 MSTORE SWAP1 PUSH1 0x1 ADD SWAP1 PUSH1 0x20 ADD DUP1 DUP4 GT PUSH2 0xAA7 JUMPI DUP3 SWAP1 SUB PUSH1 0x1F AND DUP3 ADD SWAP2 JUMPDEST POP POP POP POP POP DUP2 MSTORE PUSH1 0x20 ADD PUSH1 0x3 DUP3 ADD SLOAD DUP2 MSTORE PUSH1 0x20 ADD PUSH1 0x4 DUP3 ADD SLOAD DUP2 MSTORE PUSH1 0x20 ADD PUSH1 0x5 DUP3 ADD PUSH1 0x0 SWAP1 SLOAD SWAP1 PUSH2 0x100 EXP SWAP1 DIV PUSH1 0xFF AND ISZERO ISZERO ISZERO ISZERO DUP2 MSTORE POP POP SWAP1 POP PUSH1 0x2 DUP5 DUP2 SLOAD DUP2 LT PUSH2 0xB12 JUMPI PUSH2 0xB11 PUSH2 0x1FBF JUMP JUMPDEST JUMPDEST SWAP1 PUSH1 0x0 MSTORE PUSH1 0x20 PUSH1 0x0 KECCAK256 SWAP1 PUSH1 0x6 MUL ADD PUSH1 0x0 DUP1 DUP3 ADD PUSH1 0x0 SWAP1 SSTORE PUSH1 0x1 DUP3 ADD PUSH1 0x0 PUSH2 0xB39 SWAP2 SWAP1 PUSH2 0x157E JUMP JUMPDEST PUSH1 0x2 DUP3 ADD PUSH1 0x0 PUSH2 0xB49 SWAP2 SWAP1 PUSH2 0x157E JUMP JUMPDEST PUSH1 0x3 DUP3 ADD PUSH1 0x0 SWAP1 SSTORE PUSH1 0x4 DUP3 ADD PUSH1 0x0 SWAP1 SSTORE PUSH1 0x5 DUP3 ADD PUSH1 0x0 PUSH2 0x100 EXP DUP2 SLOAD SWAP1 PUSH1 0xFF MUL NOT AND SWAP1 SSTORE POP POP PUSH1 0x2 PUSH1 0x40 MLOAD DUP1 PUSH1 0xC0 ADD PUSH1 0x40 MSTORE DUP1 DUP4 PUSH1 0x0 ADD MLOAD DUP2 MSTORE PUSH1 0x20 ADD DUP4 PUSH1 0x20 ADD MLOAD DUP2 MSTORE PUSH1 0x20 ADD DUP4 PUSH1 0x40 ADD MLOAD DUP2 MSTORE PUSH1 0x20 ADD DUP4 PUSH1 0x60 ADD MLOAD DUP2 MSTORE PUSH1 0x20 ADD DUP4 PUSH1 0x80 ADD MLOAD DUP2 MSTORE PUSH1 0x20 ADD PUSH1 0x1 ISZERO ISZERO DUP2 MSTORE POP SWAP1 DUP1 PUSH1 0x1 DUP2 SLOAD ADD DUP1 DUP3 SSTORE DUP1 SWAP2 POP POP PUSH1 0x1 SWAP1 SUB SWAP1 PUSH1 0x0 MSTORE PUSH1 0x20 PUSH1 0x0 KECCAK256 SWAP1 PUSH1 0x6 MUL ADD PUSH1 0x0 SWAP1 SWAP2 SWAP1 SWAP2 SWAP1 SWAP2 POP PUSH1 0x0 DUP3 ADD MLOAD DUP2 PUSH1 0x0 ADD SSTORE PUSH1 0x20 DUP3 ADD MLOAD DUP2 PUSH1 0x1 ADD SWAP1 DUP2 PUSH2 0xBFD SWAP2 SWAP1 PUSH2 0x1E37 JUMP JUMPDEST POP PUSH1 0x40 DUP3 ADD MLOAD DUP2 PUSH1 0x2 ADD SWAP1 DUP2 PUSH2 0xC13 SWAP2 SWAP1 PUSH2 0x1E37 JUMP JUMPDEST POP PUSH1 0x60 DUP3 ADD MLOAD DUP2 PUSH1 0x3 ADD SSTORE PUSH1 0x80 DUP3 ADD MLOAD DUP2 PUSH1 0x4 ADD SSTORE PUSH1 0xA0 DUP3 ADD MLOAD DUP2 PUSH1 0x5 ADD PUSH1 0x0 PUSH2 0x100 EXP DUP2 SLOAD DUP2 PUSH1 0xFF MUL NOT AND SWAP1 DUP4 ISZERO ISZERO MUL OR SWAP1 SSTORE POP POP POP PUSH1 0x1 PUSH1 0x3 DUP7 PUSH1 0x40 MLOAD PUSH2 0xC5C SWAP2 SWAP1 PUSH2 0x1F45 JUMP JUMPDEST SWAP1 DUP2 MSTORE PUSH1 0x20 ADD PUSH1 0x40 MLOAD DUP1 SWAP2 SUB SWAP1 KECCAK256 DUP6 DUP2 SLOAD DUP2 LT PUSH2 0xC7C JUMPI PUSH2 0xC7B PUSH2 0x1FBF JUMP JUMPDEST JUMPDEST SWAP1 PUSH1 0x0 MSTORE PUSH1 0x20 PUSH1 0x0 KECCAK256 SWAP1 PUSH1 0x6 MUL ADD PUSH1 0x5 ADD PUSH1 0x0 PUSH2 0x100 EXP DUP2 SLOAD DUP2 PUSH1 0xFF MUL NOT AND SWAP1 DUP4 ISZERO ISZERO MUL OR SWAP1 SSTORE POP PUSH1 0x4 DUP6 PUSH1 0x40 MLOAD PUSH2 0xCB4 SWAP2 SWAP1 PUSH2 0x1F45 JUMP JUMPDEST SWAP1 DUP2 MSTORE PUSH1 0x20 ADD PUSH1 0x40 MLOAD DUP1 SWAP2 SUB SWAP1 KECCAK256 DUP5 DUP2 SLOAD DUP2 LT PUSH2 0xCD4 JUMPI PUSH2 0xCD3 PUSH2 0x1FBF JUMP JUMPDEST JUMPDEST SWAP1 PUSH1 0x0 MSTORE PUSH1 0x20 PUSH1 0x0 KECCAK256 SWAP1 PUSH1 0x6 MUL ADD PUSH1 0x0 DUP1 DUP3 ADD PUSH1 0x0 SWAP1 SSTORE PUSH1 0x1 DUP3 ADD PUSH1 0x0 PUSH2 0xCFB SWAP2 SWAP1 PUSH2 0x157E JUMP JUMPDEST PUSH1 0x2 DUP3 ADD PUSH1 0x0 PUSH2 0xD0B SWAP2 SWAP1 PUSH2 0x157E JUMP JUMPDEST PUSH1 0x3 DUP3 ADD PUSH1 0x0 SWAP1 SSTORE PUSH1 0x4 DUP3 ADD PUSH1 0x0 SWAP1 SSTORE PUSH1 0x5 DUP3 ADD PUSH1 0x0 PUSH2 0x100 EXP DUP2 SLOAD SWAP1 PUSH1 0xFF MUL NOT AND SWAP1 SSTORE POP POP PUSH1 0x5 DUP6 PUSH1 0x40 MLOAD PUSH2 0xD41 SWAP2 SWAP1 PUSH2 0x1F45 JUMP JUMPDEST SWAP1 DUP2 MSTORE PUSH1 0x20 ADD PUSH1 0x40 MLOAD DUP1 SWAP2 SUB SWAP1 KECCAK256 DUP4 SWAP1 DUP1 PUSH1 0x1 DUP2 SLOAD ADD DUP1 DUP3 SSTORE DUP1 SWAP2 POP POP PUSH1 0x1 SWAP1 SUB SWAP1 PUSH1 0x0 MSTORE PUSH1 0x20 PUSH1 0x0 KECCAK256 SWAP1 PUSH1 0x6 MUL ADD PUSH1 0x0 SWAP1 SWAP2 SWAP1 SWAP2 SWAP1 SWAP2 POP PUSH1 0x0 DUP3 ADD MLOAD DUP2 PUSH1 0x0 ADD SSTORE PUSH1 0x20 DUP3 ADD MLOAD DUP2 PUSH1 0x1 ADD SWAP1 DUP2 PUSH2 0xD98 SWAP2 SWAP1 PUSH2 0x1E37 JUMP JUMPDEST POP PUSH1 0x40 DUP3 ADD MLOAD DUP2 PUSH1 0x2 ADD SWAP1 DUP2 PUSH2 0xDAE SWAP2 SWAP1 PUSH2 0x1E37 JUMP JUMPDEST POP PUSH1 0x60 DUP3 ADD MLOAD DUP2 PUSH1 0x3 ADD SSTORE PUSH1 0x80 DUP3 ADD MLOAD DUP2 PUSH1 0x4 ADD SSTORE PUSH1 0xA0 DUP3 ADD MLOAD DUP2 PUSH1 0x5 ADD PUSH1 0x0 PUSH2 0x100 EXP DUP2 SLOAD DUP2 PUSH1 0xFF MUL NOT AND SWAP1 DUP4 ISZERO ISZERO MUL OR SWAP1 SSTORE POP POP POP DUP5 PUSH1 0x40 MLOAD PUSH2 0xDF3 SWAP2 SWAP1 PUSH2 0x1F45 JUMP JUMPDEST PUSH1 0x40 MLOAD DUP1 SWAP2 SUB SWAP1 KECCAK256 DUP5 PUSH32 0xE28E2EDD34DC43F8E5CFE399E8462A1057A879B384D9195699FF890334AE08EC PUSH1 0x40 MLOAD PUSH1 0x40 MLOAD DUP1 SWAP2 SUB SWAP1 LOG3 POP POP POP POP POP JUMP JUMPDEST PUSH1 0x60 PUSH1 0x4 DUP3 PUSH1 0x40 MLOAD PUSH2 0xE41 SWAP2 SWAP1 PUSH2 0x1F45 JUMP JUMPDEST SWAP1 DUP2 MSTORE PUSH1 0x20 ADD PUSH1 0x40 MLOAD DUP1 SWAP2 SUB SWAP1 KECCAK256 DUP1 SLOAD DUP1 PUSH1 0x20 MUL PUSH1 0x20 ADD PUSH1 0x40 MLOAD SWAP1 DUP2 ADD PUSH1 0x40 MSTORE DUP1 SWAP3 SWAP2 SWAP1 DUP2 DUP2 MSTORE PUSH1 0x20 ADD PUSH1 0x0 SWAP1 JUMPDEST DUP3 DUP3 LT ISZERO PUSH2 0xFFE JUMPI DUP4 DUP3 SWAP1 PUSH1 0x0 MSTORE PUSH1 0x20 PUSH1 0x0 KECCAK256 SWAP1 PUSH1 0x6 MUL ADD PUSH1 0x40 MLOAD DUP1 PUSH1 0xC0 ADD PUSH1 0x40 MSTORE SWAP1 DUP2 PUSH1 0x0 DUP3 ADD SLOAD DUP2 MSTORE PUSH1 0x20 ADD PUSH1 0x1 DUP3 ADD DUP1 SLOAD PUSH2 0xEAC SWAP1 PUSH2 0x1C5A JUMP JUMPDEST DUP1 PUSH1 0x1F ADD PUSH1 0x20 DUP1 SWAP2 DIV MUL PUSH1 0x20 ADD PUSH1 0x40 MLOAD SWAP1 DUP2 ADD PUSH1 0x40 MSTORE DUP1 SWAP3 SWAP2 SWAP1 DUP2 DUP2 MSTORE PUSH1 0x20 ADD DUP3 DUP1 SLOAD PUSH2 0xED8 SWAP1 PUSH2 0x1C5A JUMP JUMPDEST DUP1 ISZERO PUSH2 0xF25 JUMPI DUP1 PUSH1 0x1F LT PUSH2 0xEFA JUMPI PUSH2 0x100 DUP1 DUP4 SLOAD DIV MUL DUP4 MSTORE SWAP2 PUSH1 0x20 ADD SWAP2 PUSH2 0xF25 JUMP JUMPDEST DUP3 ADD SWAP2 SWAP1 PUSH1 0x0 MSTORE PUSH1 0x20 PUSH1 0x0 KECCAK256 SWAP1 JUMPDEST DUP2 SLOAD DUP2 MSTORE SWAP1 PUSH1 0x1 ADD SWAP1 PUSH1 0x20 ADD DUP1 DUP4 GT PUSH2 0xF08 JUMPI DUP3 SWAP1 SUB PUSH1 0x1F AND DUP3 ADD SWAP2 JUMPDEST POP POP POP POP POP DUP2 MSTORE PUSH1 0x20 ADD PUSH1 0x2 DUP3 ADD DUP1 SLOAD PUSH2 0xF3E SWAP1 PUSH2 0x1C5A JUMP JUMPDEST DUP1 PUSH1 0x1F ADD PUSH1 0x20 DUP1 SWAP2 DIV MUL PUSH1 0x20 ADD PUSH1 0x40 MLOAD SWAP1 DUP2 ADD PUSH1 0x40 MSTORE DUP1 SWAP3 SWAP2 SWAP1 DUP2 DUP2 MSTORE PUSH1 0x20 ADD DUP3 DUP1 SLOAD PUSH2 0xF6A SWAP1 PUSH2 0x1C5A JUMP JUMPDEST DUP1 ISZERO PUSH2 0xFB7 JUMPI DUP1 PUSH1 0x1F LT PUSH2 0xF8C JUMPI PUSH2 0x100 DUP1 DUP4 SLOAD DIV MUL DUP4 MSTORE SWAP2 PUSH1 0x20 ADD SWAP2 PUSH2 0xFB7 JUMP JUMPDEST DUP3 ADD SWAP2 SWAP1 PUSH1 0x0 MSTORE PUSH1 0x20 PUSH1 0x0 KECCAK256 SWAP1 JUMPDEST DUP2 SLOAD DUP2 MSTORE SWAP1 PUSH1 0x1 ADD SWAP1 PUSH1 0x20 ADD DUP1 DUP4 GT PUSH2 0xF9A JUMPI DUP3 SWAP1 SUB PUSH1 0x1F AND DUP3 ADD SWAP2 JUMPDEST POP POP POP POP POP DUP2 MSTORE PUSH1 0x20 ADD PUSH1 0x3 DUP3 ADD SLOAD DUP2 MSTORE PUSH1 0x20 ADD PUSH1 0x4 DUP3 ADD SLOAD DUP2 MSTORE PUSH1 0x20 ADD PUSH1 0x5 DUP3 ADD PUSH1 0x0 SWAP1 SLOAD SWAP1 PUSH2 0x100 EXP SWAP1 DIV PUSH1 0xFF AND ISZERO ISZERO ISZERO ISZERO DUP2 MSTORE POP POP DUP2 MSTORE PUSH1 0x20 ADD SWAP1 PUSH1 0x1 ADD SWAP1 PUSH2 0xE6F JUMP JUMPDEST POP POP POP POP SWAP1 POP SWAP2 SWAP1 POP JUMP JUMPDEST PUSH1 0x60 PUSH1 0x3 DUP3 PUSH1 0x40 MLOAD PUSH2 0x101B SWAP2 SWAP1 PUSH2 0x1F45 JUMP JUMPDEST SWAP1 DUP2 MSTORE PUSH1 0x20 ADD PUSH1 0x40 MLOAD DUP1 SWAP2 SUB SWAP1 KECCAK256 DUP1 SLOAD DUP1 PUSH1 0x20 MUL PUSH1 0x20 ADD PUSH1 0x40 MLOAD SWAP1 DUP2 ADD PUSH1 0x40 MSTORE DUP1 SWAP3 SWAP2 SWAP1 DUP2 DUP2 MSTORE PUSH1 0x20 ADD PUSH1 0x0 SWAP1 JUMPDEST DUP3 DUP3 LT ISZERO PUSH2 0x11D8 JUMPI DUP4 DUP3 SWAP1 PUSH1 0x0 MSTORE PUSH1 0x20 PUSH1 0x0 KECCAK256 SWAP1 PUSH1 0x6 MUL ADD PUSH1 0x40 MLOAD DUP1 PUSH1 0xC0 ADD PUSH1 0x40 MSTORE SWAP1 DUP2 PUSH1 0x0 DUP3 ADD SLOAD DUP2 MSTORE PUSH1 0x20 ADD PUSH1 0x1 DUP3 ADD DUP1 SLOAD PUSH2 0x1086 SWAP1 PUSH2 0x1C5A JUMP JUMPDEST DUP1 PUSH1 0x1F ADD PUSH1 0x20 DUP1 SWAP2 DIV MUL PUSH1 0x20 ADD PUSH1 0x40 MLOAD SWAP1 DUP2 ADD PUSH1 0x40 MSTORE DUP1 SWAP3 SWAP2 SWAP1 DUP2 DUP2 MSTORE PUSH1 0x20 ADD DUP3 DUP1 SLOAD PUSH2 0x10B2 SWAP1 PUSH2 0x1C5A JUMP JUMPDEST DUP1 ISZERO PUSH2 0x10FF JUMPI DUP1 PUSH1 0x1F LT PUSH2 0x10D4 JUMPI PUSH2 0x100 DUP1 DUP4 SLOAD DIV MUL DUP4 MSTORE SWAP2 PUSH1 0x20 ADD SWAP2 PUSH2 0x10FF JUMP JUMPDEST DUP3 ADD SWAP2 SWAP1 PUSH1 0x0 MSTORE PUSH1 0x20 PUSH1 0x0 KECCAK256 SWAP1 JUMPDEST DUP2 SLOAD DUP2 MSTORE SWAP1 PUSH1 0x1 ADD SWAP1 PUSH1 0x20 ADD DUP1 DUP4 GT PUSH2 0x10E2 JUMPI DUP3 SWAP1 SUB PUSH1 0x1F AND DUP3 ADD SWAP2 JUMPDEST POP POP POP POP POP DUP2 MSTORE PUSH1 0x20 ADD PUSH1 0x2 DUP3 ADD DUP1 SLOAD PUSH2 0x1118 SWAP1 PUSH2 0x1C5A JUMP JUMPDEST DUP1 PUSH1 0x1F ADD PUSH1 0x20 DUP1 SWAP2 DIV MUL PUSH1 0x20 ADD PUSH1 0x40 MLOAD SWAP1 DUP2 ADD PUSH1 0x40 MSTORE DUP1 SWAP3 SWAP2 SWAP1 DUP2 DUP2 MSTORE PUSH1 0x20 ADD DUP3 DUP1 SLOAD PUSH2 0x1144 SWAP1 PUSH2 0x1C5A JUMP JUMPDEST DUP1 ISZERO PUSH2 0x1191 JUMPI DUP1 PUSH1 0x1F LT PUSH2 0x1166 JUMPI PUSH2 0x100 DUP1 DUP4 SLOAD DIV MUL DUP4 MSTORE SWAP2 PUSH1 0x20 ADD SWAP2 PUSH2 0x1191 JUMP JUMPDEST DUP3 ADD SWAP2 SWAP1 PUSH1 0x0 MSTORE PUSH1 0x20 PUSH1 0x0 KECCAK256 SWAP1 JUMPDEST DUP2 SLOAD DUP2 MSTORE SWAP1 PUSH1 0x1 ADD SWAP1 PUSH1 0x20 ADD DUP1 DUP4 GT PUSH2 0x1174 JUMPI DUP3 SWAP1 SUB PUSH1 0x1F AND DUP3 ADD SWAP2 JUMPDEST POP POP POP POP POP DUP2 MSTORE PUSH1 0x20 ADD PUSH1 0x3 DUP3 ADD SLOAD DUP2 MSTORE PUSH1 0x20 ADD PUSH1 0x4 DUP3 ADD SLOAD DUP2 MSTORE PUSH1 0x20 ADD PUSH1 0x5 DUP3 ADD PUSH1 0x0 SWAP1 SLOAD SWAP1 PUSH2 0x100 EXP SWAP1 DIV PUSH1 0xFF AND ISZERO ISZERO ISZERO ISZERO DUP2 MSTORE POP POP DUP2 MSTORE PUSH1 0x20 ADD SWAP1 PUSH1 0x1 ADD SWAP1 PUSH2 0x1049 JUMP JUMPDEST POP POP POP POP SWAP1 POP SWAP2 SWAP1 POP JUMP JUMPDEST PUSH1 0x0 PUSH32 0x0 SWAP1 POP SWAP1 JUMP JUMPDEST PUSH1 0x60 PUSH1 0x5 DUP3 PUSH1 0x40 MLOAD PUSH2 0x121D SWAP2 SWAP1 PUSH2 0x1F45 JUMP JUMPDEST SWAP1 DUP2 MSTORE PUSH1 0x20 ADD PUSH1 0x40 MLOAD DUP1 SWAP2 SUB SWAP1 KECCAK256 DUP1 SLOAD DUP1 PUSH1 0x20 MUL PUSH1 0x20 ADD PUSH1 0x40 MLOAD SWAP1 DUP2 ADD PUSH1 0x40 MSTORE DUP1 SWAP3 SWAP2 SWAP1 DUP2 DUP2 MSTORE PUSH1 0x20 ADD PUSH1 0x0 SWAP1 JUMPDEST DUP3 DUP3 LT ISZERO PUSH2 0x13DA JUMPI DUP4 DUP3 SWAP1 PUSH1 0x0 MSTORE PUSH1 0x20 PUSH1 0x0 KECCAK256 SWAP1 PUSH1 0x6 MUL ADD PUSH1 0x40 MLOAD DUP1 PUSH1 0xC0 ADD PUSH1 0x40 MSTORE SWAP1 DUP2 PUSH1 0x0 DUP3 ADD SLOAD DUP2 MSTORE PUSH1 0x20 ADD PUSH1 0x1 DUP3 ADD DUP1 SLOAD PUSH2 0x1288 SWAP1 PUSH2 0x1C5A JUMP JUMPDEST DUP1 PUSH1 0x1F ADD PUSH1 0x20 DUP1 SWAP2 DIV MUL PUSH1 0x20 ADD PUSH1 0x40 MLOAD SWAP1 DUP2 ADD PUSH1 0x40 MSTORE DUP1 SWAP3 SWAP2 SWAP1 DUP2 DUP2 MSTORE PUSH1 0x20 ADD DUP3 DUP1 SLOAD PUSH2 0x12B4 SWAP1 PUSH2 0x1C5A JUMP JUMPDEST DUP1 ISZERO PUSH2 0x1301 JUMPI DUP1 PUSH1 0x1F LT PUSH2 0x12D6 JUMPI PUSH2 0x100 DUP1 DUP4 SLOAD DIV MUL DUP4 MSTORE SWAP2 PUSH1 0x20 ADD SWAP2 PUSH2 0x1301 JUMP JUMPDEST DUP3 ADD SWAP2 SWAP1 PUSH1 0x0 MSTORE PUSH1 0x20 PUSH1 0x0 KECCAK256 SWAP1 JUMPDEST DUP2 SLOAD DUP2 MSTORE SWAP1 PUSH1 0x1 ADD SWAP1 PUSH1 0x20 ADD DUP1 DUP4 GT PUSH2 0x12E4 JUMPI DUP3 SWAP1 SUB PUSH1 0x1F AND DUP3 ADD SWAP2 JUMPDEST POP POP POP POP POP DUP2 MSTORE PUSH1 0x20 ADD PUSH1 0x2 DUP3 ADD DUP1 SLOAD PUSH2 0x131A SWAP1 PUSH2 0x1C5A JUMP JUMPDEST DUP1 PUSH1 0x1F ADD PUSH1 0x20 DUP1 SWAP2 DIV MUL PUSH1 0x20 ADD PUSH1 0x40 MLOAD SWAP1 DUP2 ADD PUSH1 0x40 MSTORE DUP1 SWAP3 SWAP2 SWAP1 DUP2 DUP2 MSTORE PUSH1 0x20 ADD DUP3 DUP1 SLOAD PUSH2 0x1346 SWAP1 PUSH2 0x1C5A JUMP JUMPDEST DUP1 ISZERO PUSH2 0x1393 JUMPI DUP1 PUSH1 0x1F LT PUSH2 0x1368 JUMPI PUSH2 0x100 DUP1 DUP4 SLOAD DIV MUL DUP4 MSTORE SWAP2 PUSH1 0x20 ADD SWAP2 PUSH2 0x1393 JUMP JUMPDEST DUP3 ADD SWAP2 SWAP1 PUSH1 0x0 MSTORE PUSH1 0x20 PUSH1 0x0 KECCAK256 SWAP1 JUMPDEST DUP2 SLOAD DUP2 MSTORE SWAP1 PUSH1 0x1 ADD SWAP1 PUSH1 0x20 ADD DUP1 DUP4 GT PUSH2 0x1376 JUMPI DUP3 SWAP1 SUB PUSH1 0x1F AND DUP3 ADD SWAP2 JUMPDEST POP POP POP POP POP DUP2 MSTORE PUSH1 0x20 ADD PUSH1 0x3 DUP3 ADD SLOAD DUP2 MSTORE PUSH1 0x20 ADD PUSH1 0x4 DUP3 ADD SLOAD DUP2 MSTORE PUSH1 0x20 ADD PUSH1 0x5 DUP3 ADD PUSH1 0x0 SWAP1 SLOAD SWAP1 PUSH2 0x100 EXP SWAP1 DIV PUSH1 0xFF AND ISZERO ISZERO ISZERO ISZERO DUP2 MSTORE POP POP DUP2 MSTORE PUSH1 0x20 ADD SWAP1 PUSH1 0x1 ADD SWAP1 PUSH2 0x124B JUMP JUMPDEST POP POP POP POP SWAP1 POP SWAP2 SWAP1 POP JUMP JUMPDEST PUSH2 0x13ED PUSH2 0x15BE JUMP JUMPDEST PUSH1 0x2 DUP3 DUP2 SLOAD DUP2 LT PUSH2 0x1401 JUMPI PUSH2 0x1400 PUSH2 0x1FBF JUMP JUMPDEST JUMPDEST SWAP1 PUSH1 0x0 MSTORE PUSH1 0x20 PUSH1 0x0 KECCAK256 SWAP1 PUSH1 0x6 MUL ADD PUSH1 0x40 MLOAD DUP1 PUSH1 0xC0 ADD PUSH1 0x40 MSTORE SWAP1 DUP2 PUSH1 0x0 DUP3 ADD SLOAD DUP2 MSTORE PUSH1 0x20 ADD PUSH1 0x1 DUP3 ADD DUP1 SLOAD PUSH2 0x1434 SWAP1 PUSH2 0x1C5A JUMP JUMPDEST DUP1 PUSH1 0x1F ADD PUSH1 0x20 DUP1 SWAP2 DIV MUL PUSH1 0x20 ADD PUSH1 0x40 MLOAD SWAP1 DUP2 ADD PUSH1 0x40 MSTORE DUP1 SWAP3 SWAP2 SWAP1 DUP2 DUP2 MSTORE PUSH1 0x20 ADD DUP3 DUP1 SLOAD PUSH2 0x1460 SWAP1 PUSH2 0x1C5A JUMP JUMPDEST DUP1 ISZERO PUSH2 0x14AD JUMPI DUP1 PUSH1 0x1F LT PUSH2 0x1482 JUMPI PUSH2 0x100 DUP1 DUP4 SLOAD DIV MUL DUP4 MSTORE SWAP2 PUSH1 0x20 ADD SWAP2 PUSH2 0x14AD JUMP JUMPDEST DUP3 ADD SWAP2 SWAP1 PUSH1 0x0 MSTORE PUSH1 0x20 PUSH1 0x0 KECCAK256 SWAP1 JUMPDEST DUP2 SLOAD DUP2 MSTORE SWAP1 PUSH1 0x1 ADD SWAP1 PUSH1 0x20 ADD DUP1 DUP4 GT PUSH2 0x1490 JUMPI DUP3 SWAP1 SUB PUSH1 0x1F AND DUP3 ADD SWAP2 JUMPDEST POP POP POP POP POP DUP2 MSTORE PUSH1 0x20 ADD PUSH1 0x2 DUP3 ADD DUP1 SLOAD PUSH2 0x14C6 SWAP1 PUSH2 0x1C5A JUMP JUMPDEST DUP1 PUSH1 0x1F ADD PUSH1 0x20 DUP1 SWAP2 DIV MUL PUSH1 0x20 ADD PUSH1 0x40 MLOAD SWAP1 DUP2 ADD PUSH1 0x40 MSTORE DUP1 SWAP3 SWAP2 SWAP1 DUP2 DUP2 MSTORE PUSH1 0x20 ADD DUP3 DUP1 SLOAD PUSH2 0x14F2 SWAP1 PUSH2 0x1C5A JUMP JUMPDEST DUP1 ISZERO PUSH2 0x153F JUMPI DUP1 PUSH1 0x1F LT PUSH2 0x1514 JUMPI PUSH2 0x100 DUP1 DUP4 SLOAD DIV MUL DUP4 MSTORE SWAP2 PUSH1 0x20 ADD SWAP2 PUSH2 0x153F JUMP JUMPDEST DUP3 ADD SWAP2 SWAP1 PUSH1 0x0 MSTORE PUSH1 0x20 PUSH1 0x0 KECCAK256 SWAP1 JUMPDEST DUP2 SLOAD DUP2 MSTORE SWAP1 PUSH1 0x1 ADD SWAP1 PUSH1 0x20 ADD DUP1 DUP4 GT PUSH2 0x1522 JUMPI DUP3 SWAP1 SUB PUSH1 0x1F AND DUP3 ADD SWAP2 JUMPDEST POP POP POP POP POP DUP2 MSTORE PUSH1 0x20 ADD PUSH1 0x3 DUP3 ADD SLOAD DUP2 MSTORE PUSH1 0x20 ADD PUSH1 0x4 DUP3 ADD SLOAD DUP2 MSTORE PUSH1 0x20 ADD PUSH1 0x5 DUP3 ADD PUSH1 0x0 SWAP1 SLOAD SWAP1 PUSH2 0x100 EXP SWAP1 DIV PUSH1 0xFF AND ISZERO ISZERO ISZERO ISZERO DUP2 MSTORE POP POP SWAP1 POP SWAP2 SWAP1 POP JUMP JUMPDEST POP DUP1 SLOAD PUSH2 0x158A SWAP1 PUSH2 0x1C5A JUMP JUMPDEST PUSH1 0x0 DUP3 SSTORE DUP1 PUSH1 0x1F LT PUSH2 0x159C JUMPI POP PUSH2 0x15BB JUMP JUMPDEST PUSH1 0x1F ADD PUSH1 0x20 SWAP1 DIV SWAP1 PUSH1 0x0 MSTORE PUSH1 0x20 PUSH1 0x0 KECCAK256 SWAP1 DUP2 ADD SWAP1 PUSH2 0x15BA SWAP2 SWAP1 PUSH2 0x15F6 JUMP JUMPDEST JUMPDEST POP JUMP JUMPDEST PUSH1 0x40 MLOAD DUP1 PUSH1 0xC0 ADD PUSH1 0x40 MSTORE DUP1 PUSH1 0x0 DUP2 MSTORE PUSH1 0x20 ADD PUSH1 0x60 DUP2 MSTORE PUSH1 0x20 ADD PUSH1 0x60 DUP2 MSTORE PUSH1 0x20 ADD PUSH1 0x0 DUP2 MSTORE PUSH1 0x20 ADD PUSH1 0x0 DUP2 MSTORE PUSH1 0x20 ADD PUSH1 0x0 ISZERO ISZERO DUP2 MSTORE POP SWAP1 JUMP JUMPDEST JUMPDEST DUP1 DUP3 GT ISZERO PUSH2 0x160F JUMPI PUSH1 0x0 DUP2 PUSH1 0x0 SWAP1 SSTORE POP PUSH1 0x1 ADD PUSH2 0x15F7 JUMP JUMPDEST POP SWAP1 JUMP JUMPDEST PUSH1 0x0 DUP2 MLOAD SWAP1 POP SWAP2 SWAP1 POP JUMP JUMPDEST PUSH1 0x0 DUP3 DUP3 MSTORE PUSH1 0x20 DUP3 ADD SWAP1 POP SWAP3 SWAP2 POP POP JUMP JUMPDEST PUSH1 0x0 DUP2 SWAP1 POP PUSH1 0x20 DUP3 ADD SWAP1 POP SWAP2 SWAP1 POP JUMP JUMPDEST PUSH1 0x0 DUP2 SWAP1 POP SWAP2 SWAP1 POP JUMP JUMPDEST PUSH2 0x1652 DUP2 PUSH2 0x163F JUMP JUMPDEST DUP3 MSTORE POP POP JUMP JUMPDEST PUSH1 0x0 DUP2 MLOAD SWAP1 POP SWAP2 SWAP1 POP JUMP JUMPDEST PUSH1 0x0 DUP3 DUP3 MSTORE PUSH1 0x20 DUP3 ADD SWAP1 POP SWAP3 SWAP2 POP POP JUMP JUMPDEST PUSH1 0x0 JUMPDEST DUP4 DUP2 LT ISZERO PUSH2 0x1692 JUMPI DUP1 DUP3 ADD MLOAD DUP2 DUP5 ADD MSTORE PUSH1 0x20 DUP2 ADD SWAP1 POP PUSH2 0x1677 JUMP JUMPDEST PUSH1 0x0 DUP5 DUP5 ADD MSTORE POP POP POP POP JUMP JUMPDEST PUSH1 0x0 PUSH1 0x1F NOT PUSH1 0x1F DUP4 ADD AND SWAP1 POP SWAP2 SWAP1 POP JUMP JUMPDEST PUSH1 0x0 PUSH2 0x16BA DUP3 PUSH2 0x1658 JUMP JUMPDEST PUSH2 0x16C4 DUP2 DUP6 PUSH2 0x1663 JUMP JUMPDEST SWAP4 POP PUSH2 0x16D4 DUP2 DUP6 PUSH1 0x20 DUP7 ADD PUSH2 0x1674 JUMP JUMPDEST PUSH2 0x16DD DUP2 PUSH2 0x169E JUMP JUMPDEST DUP5 ADD SWAP2 POP POP SWAP3 SWAP2 POP POP JUMP JUMPDEST PUSH1 0x0 DUP2 ISZERO ISZERO SWAP1 POP SWAP2 SWAP1 POP JUMP JUMPDEST PUSH2 0x16FD DUP2 PUSH2 0x16E8 JUMP JUMPDEST DUP3 MSTORE POP POP JUMP JUMPDEST PUSH1 0x0 PUSH1 0xC0 DUP4 ADD PUSH1 0x0 DUP4 ADD MLOAD PUSH2 0x171B PUSH1 0x0 DUP7 ADD DUP3 PUSH2 0x1649 JUMP JUMPDEST POP PUSH1 0x20 DUP4 ADD MLOAD DUP5 DUP3 SUB PUSH1 0x20 DUP7 ADD MSTORE PUSH2 0x1733 DUP3 DUP3 PUSH2 0x16AF JUMP JUMPDEST SWAP2 POP POP PUSH1 0x40 DUP4 ADD MLOAD DUP5 DUP3 SUB PUSH1 0x40 DUP7 ADD MSTORE PUSH2 0x174D DUP3 DUP3 PUSH2 0x16AF JUMP JUMPDEST SWAP2 POP POP PUSH1 0x60 DUP4 ADD MLOAD PUSH2 0x1762 PUSH1 0x60 DUP7 ADD DUP3 PUSH2 0x1649 JUMP JUMPDEST POP PUSH1 0x80 DUP4 ADD MLOAD PUSH2 0x1775 PUSH1 0x80 DUP7 ADD DUP3 PUSH2 0x1649 JUMP JUMPDEST POP PUSH1 0xA0 DUP4 ADD MLOAD PUSH2 0x1788 PUSH1 0xA0 DUP7 ADD DUP3 PUSH2 0x16F4 JUMP JUMPDEST POP DUP1 SWAP2 POP POP SWAP3 SWAP2 POP POP JUMP JUMPDEST PUSH1 0x0 PUSH2 0x179F DUP4 DUP4 PUSH2 0x1703 JUMP JUMPDEST SWAP1 POP SWAP3 SWAP2 POP POP JUMP JUMPDEST PUSH1 0x0 PUSH1 0x20 DUP3 ADD SWAP1 POP SWAP2 SWAP1 POP JUMP JUMPDEST PUSH1 0x0 PUSH2 0x17BF DUP3 PUSH2 0x1613 JUMP JUMPDEST PUSH2 0x17C9 DUP2 DUP6 PUSH2 0x161E JUMP JUMPDEST SWAP4 POP DUP4 PUSH1 0x20 DUP3 MUL DUP6 ADD PUSH2 0x17DB DUP6 PUSH2 0x162F JUMP JUMPDEST DUP1 PUSH1 0x0 JUMPDEST DUP6 DUP2 LT ISZERO PUSH2 0x1817 JUMPI DUP5 DUP5 SUB DUP10 MSTORE DUP2 MLOAD PUSH2 0x17F8 DUP6 DUP3 PUSH2 0x1793 JUMP JUMPDEST SWAP5 POP PUSH2 0x1803 DUP4 PUSH2 0x17A7 JUMP JUMPDEST SWAP3 POP PUSH1 0x20 DUP11 ADD SWAP10 POP POP PUSH1 0x1 DUP2 ADD SWAP1 POP PUSH2 0x17DF JUMP JUMPDEST POP DUP3 SWAP8 POP DUP8 SWAP6 POP POP POP POP POP POP SWAP3 SWAP2 POP POP JUMP JUMPDEST PUSH1 0x0 PUSH1 0x20 DUP3 ADD SWAP1 POP DUP2 DUP2 SUB PUSH1 0x0 DUP4 ADD MSTORE PUSH2 0x1843 DUP2 DUP5 PUSH2 0x17B4 JUMP JUMPDEST SWAP1 POP SWAP3 SWAP2 POP POP JUMP JUMPDEST PUSH1 0x0 PUSH1 0x40 MLOAD SWAP1 POP SWAP1 JUMP JUMPDEST PUSH1 0x0 DUP1 REVERT JUMPDEST PUSH1 0x0 DUP1 REVERT JUMPDEST PUSH1 0x0 DUP1 REVERT JUMPDEST PUSH1 0x0 DUP1 REVERT JUMPDEST PUSH32 0x4E487B7100000000000000000000000000000000000000000000000000000000 PUSH1 0x0 MSTORE PUSH1 0x41 PUSH1 0x4 MSTORE PUSH1 0x24 PUSH1 0x0 REVERT JUMPDEST PUSH2 0x18A1 DUP3 PUSH2 0x169E JUMP JUMPDEST DUP2 ADD DUP2 DUP2 LT PUSH8 0xFFFFFFFFFFFFFFFF DUP3 GT OR ISZERO PUSH2 0x18C0 JUMPI PUSH2 0x18BF PUSH2 0x1869 JUMP JUMPDEST JUMPDEST DUP1 PUSH1 0x40 MSTORE POP POP POP JUMP JUMPDEST PUSH1 0x0 PUSH2 0x18D3 PUSH2 0x184B JUMP JUMPDEST SWAP1 POP PUSH2 0x18DF DUP3 DUP3 PUSH2 0x1898 JUMP JUMPDEST SWAP2 SWAP1 POP JUMP JUMPDEST PUSH1 0x0 PUSH8 0xFFFFFFFFFFFFFFFF DUP3 GT ISZERO PUSH2 0x18FF JUMPI PUSH2 0x18FE PUSH2 0x1869 JUMP JUMPDEST JUMPDEST PUSH2 0x1908 DUP3 PUSH2 0x169E JUMP JUMPDEST SWAP1 POP PUSH1 0x20 DUP2 ADD SWAP1 POP SWAP2 SWAP1 POP JUMP JUMPDEST DUP3 DUP2 DUP4 CALLDATACOPY PUSH1 0x0 DUP4 DUP4 ADD MSTORE POP POP POP JUMP JUMPDEST PUSH1 0x0 PUSH2 0x1937 PUSH2 0x1932 DUP5 PUSH2 0x18E4 JUMP JUMPDEST PUSH2 0x18C9 JUMP JUMPDEST SWAP1 POP DUP3 DUP2 MSTORE PUSH1 0x20 DUP2 ADD DUP5 DUP5 DUP5 ADD GT ISZERO PUSH2 0x1953 JUMPI PUSH2 0x1952 PUSH2 0x1864 JUMP JUMPDEST JUMPDEST PUSH2 0x195E DUP5 DUP3 DUP6 PUSH2 0x1915 JUMP JUMPDEST POP SWAP4 SWAP3 POP POP POP JUMP JUMPDEST PUSH1 0x0 DUP3 PUSH1 0x1F DUP4 ADD SLT PUSH2 0x197B JUMPI PUSH2 0x197A PUSH2 0x185F JUMP JUMPDEST JUMPDEST DUP2 CALLDATALOAD PUSH2 0x198B DUP5 DUP3 PUSH1 0x20 DUP7 ADD PUSH2 0x1924 JUMP JUMPDEST SWAP2 POP POP SWAP3 SWAP2 POP POP JUMP JUMPDEST PUSH2 0x199D DUP2 PUSH2 0x163F JUMP JUMPDEST DUP2 EQ PUSH2 0x19A8 JUMPI PUSH1 0x0 DUP1 REVERT JUMPDEST POP JUMP JUMPDEST PUSH1 0x0 DUP2 CALLDATALOAD SWAP1 POP PUSH2 0x19BA DUP2 PUSH2 0x1994 JUMP JUMPDEST SWAP3 SWAP2 POP POP JUMP JUMPDEST PUSH1 0x0 DUP1 PUSH1 0x0 PUSH1 0x60 DUP5 DUP7 SUB SLT ISZERO PUSH2 0x19D9 JUMPI PUSH2 0x19D8 PUSH2 0x1855 JUMP JUMPDEST JUMPDEST PUSH1 0x0 DUP5 ADD CALLDATALOAD PUSH8 0xFFFFFFFFFFFFFFFF DUP2 GT ISZERO PUSH2 0x19F7 JUMPI PUSH2 0x19F6 PUSH2 0x185A JUMP JUMPDEST JUMPDEST PUSH2 0x1A03 DUP7 DUP3 DUP8 ADD PUSH2 0x1966 JUMP JUMPDEST SWAP4 POP POP PUSH1 0x20 DUP5 ADD CALLDATALOAD PUSH8 0xFFFFFFFFFFFFFFFF DUP2 GT ISZERO PUSH2 0x1A24 JUMPI PUSH2 0x1A23 PUSH2 0x185A JUMP JUMPDEST JUMPDEST PUSH2 0x1A30 DUP7 DUP3 DUP8 ADD PUSH2 0x1966 JUMP JUMPDEST SWAP3 POP POP PUSH1 0x40 PUSH2 0x1A41 DUP7 DUP3 DUP8 ADD PUSH2 0x19AB JUMP JUMPDEST SWAP2 POP POP SWAP3 POP SWAP3 POP SWAP3 JUMP JUMPDEST PUSH1 0x0 DUP1 PUSH1 0x40 DUP4 DUP6 SUB SLT ISZERO PUSH2 0x1A62 JUMPI PUSH2 0x1A61 PUSH2 0x1855 JUMP JUMPDEST JUMPDEST PUSH1 0x0 DUP4 ADD CALLDATALOAD PUSH8 0xFFFFFFFFFFFFFFFF DUP2 GT ISZERO PUSH2 0x1A80 JUMPI PUSH2 0x1A7F PUSH2 0x185A JUMP JUMPDEST JUMPDEST PUSH2 0x1A8C DUP6 DUP3 DUP7 ADD PUSH2 0x1966 JUMP JUMPDEST SWAP3 POP POP PUSH1 0x20 PUSH2 0x1A9D DUP6 DUP3 DUP7 ADD PUSH2 0x19AB JUMP JUMPDEST SWAP2 POP POP SWAP3 POP SWAP3 SWAP1 POP JUMP JUMPDEST PUSH1 0x0 PUSH1 0x20 DUP3 DUP5 SUB SLT ISZERO PUSH2 0x1ABD JUMPI PUSH2 0x1ABC PUSH2 0x1855 JUMP JUMPDEST JUMPDEST PUSH1 0x0 DUP3 ADD CALLDATALOAD PUSH8 0xFFFFFFFFFFFFFFFF DUP2 GT ISZERO PUSH2 0x1ADB JUMPI PUSH2 0x1ADA PUSH2 0x185A JUMP JUMPDEST JUMPDEST PUSH2 0x1AE7 DUP5 DUP3 DUP6 ADD PUSH2 0x1966 JUMP JUMPDEST SWAP2 POP POP SWAP3 SWAP2 POP POP JUMP JUMPDEST PUSH1 0x0 PUSH20 0xFFFFFFFFFFFFFFFFFFFFFFFFFFFFFFFFFFFFFFFF DUP3 AND SWAP1 POP SWAP2 SWAP1 POP JUMP JUMPDEST PUSH1 0x0 PUSH2 0x1B1B DUP3 PUSH2 0x1AF0 JUMP JUMPDEST SWAP1 POP SWAP2 SWAP1 POP JUMP JUMPDEST PUSH2 0x1B2B DUP2 PUSH2 0x1B10 JUMP JUMPDEST DUP3 MSTORE POP POP JUMP JUMPDEST PUSH1 0x0 PUSH1 0x20 DUP3 ADD SWAP1 POP PUSH2 0x1B46 PUSH1 0x0 DUP4 ADD DUP5 PUSH2 0x1B22 JUMP JUMPDEST SWAP3 SWAP2 POP POP JUMP JUMPDEST PUSH1 0x0 PUSH1 0x20 DUP3 DUP5 SUB SLT ISZERO PUSH2 0x1B62 JUMPI PUSH2 0x1B61 PUSH2 0x1855 JUMP JUMPDEST JUMPDEST PUSH1 0x0 PUSH2 0x1B70 DUP5 DUP3 DUP6 ADD PUSH2 0x19AB JUMP JUMPDEST SWAP2 POP POP SWAP3 SWAP2 POP POP JUMP JUMPDEST PUSH1 0x0 PUSH1 0xC0 DUP4 ADD PUSH1 0x0 DUP4 ADD MLOAD PUSH2 0x1B91 PUSH1 0x0 DUP7 ADD DUP3 PUSH2 0x1649 JUMP JUMPDEST POP PUSH1 0x20 DUP4 ADD MLOAD DUP5 DUP3 SUB PUSH1 0x20 DUP7 ADD MSTORE PUSH2 0x1BA9 DUP3 DUP3 PUSH2 0x16AF JUMP JUMPDEST SWAP2 POP POP PUSH1 0x40 DUP4 ADD MLOAD DUP5 DUP3 SUB PUSH1 0x40 DUP7 ADD MSTORE PUSH2 0x1BC3 DUP3 DUP3 PUSH2 0x16AF JUMP JUMPDEST SWAP2 POP POP PUSH1 0x60 DUP4 ADD MLOAD PUSH2 0x1BD8 PUSH1 0x60 DUP7 ADD DUP3 PUSH2 0x1649 JUMP JUMPDEST POP PUSH1 0x80 DUP4 ADD MLOAD PUSH2 0x1BEB PUSH1 0x80 DUP7 ADD DUP3 PUSH2 0x1649 JUMP JUMPDEST POP PUSH1 0xA0 DUP4 ADD MLOAD PUSH2 0x1BFE PUSH1 0xA0 DUP7 ADD DUP3 PUSH2 0x16F4 JUMP JUMPDEST POP DUP1 SWAP2 POP POP SWAP3 SWAP2 POP POP JUMP JUMPDEST PUSH1 0x0 PUSH1 0x20 DUP3 ADD SWAP1 POP DUP2 DUP2 SUB PUSH1 0x0 DUP4 ADD MSTORE PUSH2 0x1C23 DUP2 DUP5 PUSH2 0x1B79 JUMP JUMPDEST SWAP1 POP SWAP3 SWAP2 POP POP JUMP JUMPDEST PUSH32 0x4E487B7100000000000000000000000000000000000000000000000000000000 PUSH1 0x0 MSTORE PUSH1 0x22 PUSH1 0x4 MSTORE PUSH1 0x24 PUSH1 0x0 REVERT JUMPDEST PUSH1 0x0 PUSH1 0x2 DUP3 DIV SWAP1 POP PUSH1 0x1 DUP3 AND DUP1 PUSH2 0x1C72 JUMPI PUSH1 0x7F DUP3 AND SWAP2 POP JUMPDEST PUSH1 0x20 DUP3 LT DUP2 SUB PUSH2 0x1C85 JUMPI PUSH2 0x1C84 PUSH2 0x1C2B JUMP JUMPDEST JUMPDEST POP SWAP2 SWAP1 POP JUMP JUMPDEST PUSH1 0x0 DUP2 SWAP1 POP DUP2 PUSH1 0x0 MSTORE PUSH1 0x20 PUSH1 0x0 KECCAK256 SWAP1 POP SWAP2 SWAP1 POP JUMP JUMPDEST PUSH1 0x0 PUSH1 0x20 PUSH1 0x1F DUP4 ADD DIV SWAP1 POP SWAP2 SWAP1 POP JUMP JUMPDEST PUSH1 0x0 DUP3 DUP3 SHL SWAP1 POP SWAP3 SWAP2 POP POP JUMP JUMPDEST PUSH1 0x0 PUSH1 0x8 DUP4 MUL PUSH2 0x1CED PUSH32 0xFFFFFFFFFFFFFFFFFFFFFFFFFFFFFFFFFFFFFFFFFFFFFFFFFFFFFFFFFFFFFFFF DUP3 PUSH2 0x1CB0 JUMP JUMPDEST PUSH2 0x1CF7 DUP7 DUP4 PUSH2 0x1CB0 JUMP JUMPDEST SWAP6 POP DUP1 NOT DUP5 AND SWAP4 POP DUP1 DUP7 AND DUP5 OR SWAP3 POP POP POP SWAP4 SWAP3 POP POP POP JUMP JUMPDEST PUSH1 0x0 DUP2 SWAP1 POP SWAP2 SWAP1 POP JUMP JUMPDEST PUSH1 0x0 PUSH2 0x1D34 PUSH2 0x1D2F PUSH2 0x1D2A DUP5 PUSH2 0x163F JUMP JUMPDEST PUSH2 0x1D0F JUMP JUMPDEST PUSH2 0x163F JUMP JUMPDEST SWAP1 POP SWAP2 SWAP1 POP JUMP JUMPDEST PUSH1 0x0 DUP2 SWAP1 POP SWAP2 SWAP1 POP JUMP JUMPDEST PUSH2 0x1D4E DUP4 PUSH2 0x1D19 JUMP JUMPDEST PUSH2 0x1D62 PUSH2 0x1D5A DUP3 PUSH2 0x1D3B JUMP JUMPDEST DUP5 DUP5 SLOAD PUSH2 0x1CBD JUMP JUMPDEST DUP3 SSTORE POP POP POP POP JUMP JUMPDEST PUSH1 0x0 SWAP1 JUMP JUMPDEST PUSH2 0x1D77 PUSH2 0x1D6A JUMP JUMPDEST PUSH2 0x1D82 DUP2 DUP5 DUP5 PUSH2 0x1D45 JUMP JUMPDEST POP POP POP JUMP JUMPDEST JUMPDEST DUP2 DUP2 LT ISZERO PUSH2 0x1DA6 JUMPI PUSH2 0x1D9B PUSH1 0x0 DUP3 PUSH2 0x1D6F JUMP JUMPDEST PUSH1 0x1 DUP2 ADD SWAP1 POP PUSH2 0x1D88 JUMP JUMPDEST POP POP JUMP JUMPDEST PUSH1 0x1F DUP3 GT ISZERO PUSH2 0x1DEB JUMPI PUSH2 0x1DBC DUP2 PUSH2 0x1C8B JUMP JUMPDEST PUSH2 0x1DC5 DUP5 PUSH2 0x1CA0 JUMP JUMPDEST DUP2 ADD PUSH1 0x20 DUP6 LT ISZERO PUSH2 0x1DD4 JUMPI DUP2 SWAP1 POP JUMPDEST PUSH2 0x1DE8 PUSH2 0x1DE0 DUP6 PUSH2 0x1CA0 JUMP JUMPDEST DUP4 ADD DUP3 PUSH2 0x1D87 JUMP JUMPDEST POP POP JUMPDEST POP POP POP JUMP JUMPDEST PUSH1 0x0 DUP3 DUP3 SHR SWAP1 POP SWAP3 SWAP2 POP POP JUMP JUMPDEST PUSH1 0x0 PUSH2 0x1E0E PUSH1 0x0 NOT DUP5 PUSH1 0x8 MUL PUSH2 0x1DF0 JUMP JUMPDEST NOT DUP1 DUP4 AND SWAP2 POP POP SWAP3 SWAP2 POP POP JUMP JUMPDEST PUSH1 0x0 PUSH2 0x1E27 DUP4 DUP4 PUSH2 0x1DFD JUMP JUMPDEST SWAP2 POP DUP3 PUSH1 0x2 MUL DUP3 OR SWAP1 POP SWAP3 SWAP2 POP POP JUMP JUMPDEST PUSH2 0x1E40 DUP3 PUSH2 0x1658 JUMP JUMPDEST PUSH8 0xFFFFFFFFFFFFFFFF DUP2 GT ISZERO PUSH2 0x1E59 JUMPI PUSH2 0x1E58 PUSH2 0x1869 JUMP JUMPDEST JUMPDEST PUSH2 0x1E63 DUP3 SLOAD PUSH2 0x1C5A JUMP JUMPDEST PUSH2 0x1E6E DUP3 DUP3 DUP6 PUSH2 0x1DAA JUMP JUMPDEST PUSH1 0x0 PUSH1 0x20 SWAP1 POP PUSH1 0x1F DUP4 GT PUSH1 0x1 DUP2 EQ PUSH2 0x1EA1 JUMPI PUSH1 0x0 DUP5 ISZERO PUSH2 0x1E8F JUMPI DUP3 DUP8 ADD MLOAD SWAP1 POP JUMPDEST PUSH2 0x1E99 DUP6 DUP3 PUSH2 0x1E1B JUMP JUMPDEST DUP7 SSTORE POP PUSH2 0x1F01 JUMP JUMPDEST PUSH1 0x1F NOT DUP5 AND PUSH2 0x1EAF DUP7 PUSH2 0x1C8B JUMP JUMPDEST PUSH1 0x0 JUMPDEST DUP3 DUP2 LT ISZERO PUSH2 0x1ED7 JUMPI DUP5 DUP10 ADD MLOAD DUP3 SSTORE PUSH1 0x1 DUP3 ADD SWAP2 POP PUSH1 0x20 DUP6 ADD SWAP5 POP PUSH1 0x20 DUP2 ADD SWAP1 POP PUSH2 0x1EB2 JUMP JUMPDEST DUP7 DUP4 LT ISZERO PUSH2 0x1EF4 JUMPI DUP5 DUP10 ADD MLOAD PUSH2 0x1EF0 PUSH1 0x1F DUP10 AND DUP3 PUSH2 0x1DFD JUMP JUMPDEST DUP4 SSTORE POP JUMPDEST PUSH1 0x1 PUSH1 0x2 DUP9 MUL ADD DUP9 SSTORE POP POP POP JUMPDEST POP POP POP POP POP POP JUMP JUMPDEST PUSH1 0x0 DUP2 SWAP1 POP SWAP3 SWAP2 POP POP JUMP JUMPDEST PUSH1 0x0 PUSH2 0x1F1F DUP3 PUSH2 0x1658 JUMP JUMPDEST PUSH2 0x1F29 DUP2 DUP6 PUSH2 0x1F09 JUMP JUMPDEST SWAP4 POP PUSH2 0x1F39 DUP2 DUP6 PUSH1 0x20 DUP7 ADD PUSH2 0x1674 JUMP JUMPDEST DUP1 DUP5 ADD SWAP2 POP POP SWAP3 SWAP2 POP POP JUMP JUMPDEST PUSH1 0x0 PUSH2 0x1F51 DUP3 DUP5 PUSH2 0x1F14 JUMP JUMPDEST SWAP2 POP DUP2 SWAP1 POP SWAP3 SWAP2 POP POP JUMP JUMPDEST PUSH32 0x4E487B7100000000000000000000000000000000000000000000000000000000 PUSH1 0x0 MSTORE PUSH1 0x11 PUSH1 0x4 MSTORE PUSH1 0x24 PUSH1 0x0 REVERT JUMPDEST PUSH1 0x0 PUSH2 0x1F96 DUP3 PUSH2 0x163F JUMP JUMPDEST SWAP2 POP PUSH2 0x1FA1 DUP4 PUSH2 0x163F JUMP JUMPDEST SWAP3 POP DUP3 DUP3 ADD SWAP1 POP DUP1 DUP3 GT ISZERO PUSH2 0x1FB9 JUMPI PUSH2 0x1FB8 PUSH2 0x1F5C JUMP JUMPDEST JUMPDEST SWAP3 SWAP2 POP POP JUMP JUMPDEST PUSH32 0x4E487B7100000000000000000000000000000000000000000000000000000000 PUSH1 0x0 MSTORE PUSH1 0x32 PUSH1 0x4 MSTORE PUSH1 0x24 PUSH1 0x0 REVERT INVALID LOG2 PUSH5 0x6970667358 0x22 SLT KECCAK256 REVERT PUSH22 0xFC5301EB1281098EE9E108FC607E00A0CFF8C33E4BCE 0xD6 0xCC PUSH21 0xE33D6F8FFB64736F6C634300081100330000000000 "},"gasEstimates":{"creation":{"codeDepositCost":"1645600","executionCost":"infinite","totalCost":"infinite"},"external":{"createTicket(string,string,uint256)":"infinite","getAdminAddress()":"infinite","getAllTickets()":"infinite","getTicketInfo(uint256)":"infinite","getVehiclePaidTickets(string)":"infinite","getVehicleTickets(string)":"infinite","getVehicleUnPaidTickets(string)":"infinite","payTicket(string,uint256)":"infinite"}},"methodIdentifiers":{"createTicket(string,string,uint256)":"1af4d702","getAdminAddress()":"b2e6b912","getAllTickets()":"03e96fe3","getTicketInfo(uint256)":"ff99a063","getVehiclePaidTickets(string)":"cdf8254b","getVehicleTickets(string)":"7d71c9e7","getVehicleUnPaidTickets(string)":"5153e8dd","payTicket(string,uint256)":"4fd77ff3"}},"storageLayout":{"storage":[{"astId":9,"contract":"contracts/Ledger.sol:Ledger","label":"s_ticketCount","offset":0,"slot":"0","type":"t_uint256"},{"astId":11,"contract":"contracts/Ledger.sol:Ledger","label":"s_ledgerBalance","offset":0,"slot":"1","type":"t_uint256"},{"astId":28,"contract":"contracts/Ledger.sol:Ledger","label":"s_tickets","offset":0,"slot":"2","type":"t_array(t_struct(Ticket)24_storage)dyn_storage"},{"astId":34,"contract":"contracts/Ledger.sol:Ledger","label":"s_vehicleTickets","offset":0,"slot":"3","type":"t_mapping(t_string_memory_ptr,t_array(t_struct(Ticket)24_storage)dyn_storage)"},{"astId":40,"contract":"contracts/Ledger.sol:Ledger","label":"s_vehicleUpaidTickets","offset":0,"slot":"4","type":"t_mapping(t_string_memory_ptr,t_array(t_struct(Ticket)24_storage)dyn_storage)"},{"astId":46,"contract":"contracts/Ledger.sol:Ledger","label":"s_vehiclePaidTickets","offset":0,"slot":"5","type":"t_mapping(t_string_memory_ptr,t_array(t_struct(Ticket)24_storage)dyn_storage)"}],"types":{"t_array(t_struct(Ticket)24_storage)dyn_storage":{"base":"t_struct(Ticket)24_storage","encoding":"dynamic_array","label":"struct Ledger.Ticket[]","numberOfBytes":"32"},"t_bool":{"encoding":"inplace","label":"bool","numberOfBytes":"1"},"t_mapping(t_string_memory_ptr,t_array(t_struct(Ticket)24_storage)dyn_storage)":{"encoding":"mapping","key":"t_string_memory_ptr","label":"mapping(string => struct Ledger.Ticket[])","numberOfBytes":"32","value":"t_array(t_struct(Ticket)24_storage)dyn_storage"},"t_string_memory_ptr":{"encoding":"bytes","label":"string","numberOfBytes":"32"},"t_string_storage":{"encoding":"bytes","label":"string","numberOfBytes":"32"},"t_struct(Ticket)24_storage":{"encoding":"inplace","label":"struct Ledger.Ticket","members":[{"astId":13,"contract":"contracts/Ledger.sol:Ledger","label":"ticketNumber","offset":0,"slot":"0","type":"t_uint256"},{"astId":15,"contract":"contracts/Ledger.sol:Ledger","label":"location","offset":0,"slot":"1","type":"t_string_storage"},{"astId":17,"contract":"contracts/Ledger.sol:Ledger","label":"carNumberPlate","offset":0,"slot":"2","type":"t_string_storage"},{"astId":19,"contract":"contracts/Ledger.sol:Ledger","label":"price","offset":0,"slot":"3","type":"t_uint256"},{"astId":21,"contract":"contracts/Ledger.sol:Ledger","label":"issuedAt","offset":0,"slot":"4","type":"t_uint256"},{"astId":23,"contract":"contracts/Ledger.sol:Ledger","label":"isPaid","offset":0,"slot":"5","type":"t_bool"}],"numberOfBytes":"192"},"t_uint256":{"encoding":"inplace","label":"uint256","numberOfBytes":"32"}}},"userdoc":{"kind":"user","methods":{},"version":1}}}}